{
	"data": {
		"bytecode": {
			"linkReferences": {},
			"object": "60806040526658d15e1762800060045534801561001b57600080fd5b50600160008190555033600360006101000a81548173ffffffffffffffffffffffffffffffffffffffff021916908373ffffffffffffffffffffffffffffffffffffffff160217905550612167806100746000396000f3fe6080604052600436106100915760003560e01c8063a9c0714511610059578063a9c0714514610170578063ab76ce1614610199578063b8fe6abe146101c4578063c23b139e146101ef578063ef8da9da1461020b57610091565b8063332b386b1461009657806356246c40146100c157806358eb2df5146100fe5780635e385b921461011a5780636a1b7ecc14610145575b600080fd5b3480156100a257600080fd5b506100ab610236565b6040516100b89190611c5b565b60405180910390f35b3480156100cd57600080fd5b506100e860048036038101906100e3919061185b565b610247565b6040516100f59190611d7d565b60405180910390f35b61011860048036038101906101139190611808565b610267565b005b34801561012657600080fd5b5061012f6106e1565b60405161013c9190611b3a565b60405180910390f35b34801561015157600080fd5b5061015a610707565b6040516101679190611d7d565b60405180910390f35b34801561017c57600080fd5b506101976004803603810190610192919061185b565b61070d565b005b3480156101a557600080fd5b506101ae610b61565b6040516101bb9190611c5b565b60405180910390f35b3480156101d057600080fd5b506101d9610b72565b6040516101e69190611d7d565b60405180910390f35b610209600480360381019061020491906117c8565b610b7c565b005b34801561021757600080fd5b50610220610e7e565b60405161022d9190611c5b565b60405180910390f35b60606102426000610e8f565b905090565b600060056000838152602001908152602001600020600501549050919050565b600260005414156102ad576040517f08c379a00000000000000000000000000000000000000000000000000000000081526004016102a490611d3d565b60405180910390fd5b6002600081905550600081116102f8576040517f08c379a00000000000000000000000000000000000000000000000000000000081526004016102ef90611d5d565b60405180910390fd5b600454341461033c576040517f08c379a000000000000000000000000000000000000000000000000000000000815260040161033390611cbd565b60405180910390fd5b610346600161140c565b60006103526001611422565b90506040518060e001604052808281526020018573ffffffffffffffffffffffffffffffffffffffff1681526020018481526020013373ffffffffffffffffffffffffffffffffffffffff168152602001600073ffffffffffffffffffffffffffffffffffffffff168152602001838152602001600060028111156103da576103d9611f15565b5b815250600560008381526020019081526020016000206000820151816000015560208201518160010160006101000a81548173ffffffffffffffffffffffffffffffffffffffff021916908373ffffffffffffffffffffffffffffffffffffffff1602179055506040820151816002015560608201518160030160006101000a81548173ffffffffffffffffffffffffffffffffffffffff021916908373ffffffffffffffffffffffffffffffffffffffff16021790555060808201518160040160006101000a81548173ffffffffffffffffffffffffffffffffffffffff021916908373ffffffffffffffffffffffffffffffffffffffff16021790555060a0820151816005015560c08201518160060160006101000a81548160ff0219169083600281111561050e5761050d611f15565b5b02179055509050503073ffffffffffffffffffffffffffffffffffffffff168473ffffffffffffffffffffffffffffffffffffffff1663081812fc856040518263ffffffff1660e01b81526004016105669190611d7d565b60206040518083038186803b15801561057e57600080fd5b505afa158015610592573d6000803e3d6000fd5b505050506040513d601f19601f820116820180604052508101906105b6919061179b565b73ffffffffffffffffffffffffffffffffffffffff161461060c576040517f08c379a000000000000000000000000000000000000000000000000000000000815260040161060390611d1d565b60405180910390fd5b8373ffffffffffffffffffffffffffffffffffffffff166323b872dd3330866040518463ffffffff1660e01b815260040161064993929190611bdf565b600060405180830381600087803b15801561066357600080fd5b505af1158015610677573d6000803e3d6000fd5b50505050828473ffffffffffffffffffffffffffffffffffffffff16827fb0a8dcfc08f1150d20def3c46440be585f61cce1bdbb0fdf16bc597f471c6e703360008760006040516106cb9493929190611c16565b60405180910390a4506001600081905550505050565b600360009054906101000a900473ffffffffffffffffffffffffffffffffffffffff1681565b60045481565b60026000541415610753576040517f08c379a000000000000000000000000000000000000000000000000000000000815260040161074a90611d3d565b60405180910390fd5b60026000819055506107656001611422565b8111156107a7576040517f08c379a000000000000000000000000000000000000000000000000000000000815260040161079e90611cdd565b60405180910390fd5b600060028111156107bb576107ba611f15565b5b6005600083815260200190815260200160002060060160009054906101000a900460ff1660028111156107f1576107f0611f15565b5b14610831576040517f08c379a000000000000000000000000000000000000000000000000000000000815260040161082890611cfd565b60405180910390fd5b60006005600083815260200190815260200160002090503373ffffffffffffffffffffffffffffffffffffffff168160010160009054906101000a900473ffffffffffffffffffffffffffffffffffffffff1673ffffffffffffffffffffffffffffffffffffffff16636352211e83600201546040518263ffffffff1660e01b81526004016108c09190611d7d565b60206040518083038186803b1580156108d857600080fd5b505afa1580156108ec573d6000803e3d6000fd5b505050506040513d601f19601f82011682018060405250810190610910919061179b565b73ffffffffffffffffffffffffffffffffffffffff1614610966576040517f08c379a000000000000000000000000000000000000000000000000000000000815260040161095d90611c7d565b60405180910390fd5b3073ffffffffffffffffffffffffffffffffffffffff168160010160009054906101000a900473ffffffffffffffffffffffffffffffffffffffff1673ffffffffffffffffffffffffffffffffffffffff1663081812fc83600201546040518263ffffffff1660e01b81526004016109de9190611d7d565b60206040518083038186803b1580156109f657600080fd5b505afa158015610a0a573d6000803e3d6000fd5b505050506040513d601f19601f82011682018060405250810190610a2e919061179b565b73ffffffffffffffffffffffffffffffffffffffff1614610a84576040517f08c379a0000000000000000000000000000000000000000000000000000000008152600401610a7b90611d1d565b60405180910390fd5b60028160060160006101000a81548160ff02191690836002811115610aac57610aab611f15565b5b021790555080600201548160010160009054906101000a900473ffffffffffffffffffffffffffffffffffffffff1673ffffffffffffffffffffffffffffffffffffffff16837f064a9702da2c4a0a9af4cabda06e4715203ed7b0b3bb67eca6d3168e1c519bff8460030160009054906101000a900473ffffffffffffffffffffffffffffffffffffffff166000806002604051610b4d9493929190611b55565b60405180910390a450600160008190555050565b6060610b6d6001610e8f565b905090565b6000600454905090565b60026000541415610bc2576040517f08c379a0000000000000000000000000000000000000000000000000000000008152600401610bb990611d3d565b60405180910390fd5b60026000819055506000600560008381526020019081526020016000209050600081600501549050600082600201549050813414610c35576040517f08c379a0000000000000000000000000000000000000000000000000000000008152600401610c2c90611c9d565b60405180910390fd5b338360040160006101000a81548173ffffffffffffffffffffffffffffffffffffffff021916908373ffffffffffffffffffffffffffffffffffffffff16021790555060018360060160006101000a81548160ff02191690836002811115610ca057610c9f611f15565b5b0217905550610caf600261140c565b8473ffffffffffffffffffffffffffffffffffffffff166323b872dd3033846040518463ffffffff1660e01b8152600401610cec93929190611bdf565b600060405180830381600087803b158015610d0657600080fd5b505af1158015610d1a573d6000803e3d6000fd5b50505050600360009054906101000a900473ffffffffffffffffffffffffffffffffffffffff1673ffffffffffffffffffffffffffffffffffffffff166108fc6004549081150290604051600060405180830381858888f19350505050158015610d88573d6000803e3d6000fd5b508260030160009054906101000a900473ffffffffffffffffffffffffffffffffffffffff1673ffffffffffffffffffffffffffffffffffffffff166108fc349081150290604051600060405180830381858888f19350505050158015610df3573d6000803e3d6000fd5b50808573ffffffffffffffffffffffffffffffffffffffff16857f064a9702da2c4a0a9af4cabda06e4715203ed7b0b3bb67eca6d3168e1c519bff8660030160009054906101000a900473ffffffffffffffffffffffffffffffffffffffff1633876001604051610e679493929190611b9a565b60405180910390a450505060016000819055505050565b6060610e8a6002610e8f565b905090565b60606000610e9d6001611422565b9050600080600190505b82811161105757611030600560008381526020019081526020016000206040518060e0016040529081600082015481526020016001820160009054906101000a900473ffffffffffffffffffffffffffffffffffffffff1673ffffffffffffffffffffffffffffffffffffffff1673ffffffffffffffffffffffffffffffffffffffff168152602001600282015481526020016003820160009054906101000a900473ffffffffffffffffffffffffffffffffffffffff1673ffffffffffffffffffffffffffffffffffffffff1673ffffffffffffffffffffffffffffffffffffffff1681526020016004820160009054906101000a900473ffffffffffffffffffffffffffffffffffffffff1673ffffffffffffffffffffffffffffffffffffffff1673ffffffffffffffffffffffffffffffffffffffff168152602001600582015481526020016006820160009054906101000a900460ff16600281111561101457611013611f15565b5b600281111561102657611025611f15565b5b8152505086611430565b1561104457818061104090611e9d565b9250505b808061104f90611e9d565b915050610ea7565b506000808267ffffffffffffffff81111561107557611074611f73565b5b6040519080825280602002602001820160405280156110ae57816020015b61109b6116cb565b8152602001906001900390816110935790505b5090506000600190505b8481116113ff57611241600560008381526020019081526020016000206040518060e0016040529081600082015481526020016001820160009054906101000a900473ffffffffffffffffffffffffffffffffffffffff1673ffffffffffffffffffffffffffffffffffffffff1673ffffffffffffffffffffffffffffffffffffffff168152602001600282015481526020016003820160009054906101000a900473ffffffffffffffffffffffffffffffffffffffff1673ffffffffffffffffffffffffffffffffffffffff1673ffffffffffffffffffffffffffffffffffffffff1681526020016004820160009054906101000a900473ffffffffffffffffffffffffffffffffffffffff1673ffffffffffffffffffffffffffffffffffffffff1673ffffffffffffffffffffffffffffffffffffffff168152602001600582015481526020016006820160009054906101000a900460ff16600281111561122557611224611f15565b5b600281111561123757611236611f15565b5b8152505088611430565b156113ec57600560008281526020019081526020016000206040518060e0016040529081600082015481526020016001820160009054906101000a900473ffffffffffffffffffffffffffffffffffffffff1673ffffffffffffffffffffffffffffffffffffffff1673ffffffffffffffffffffffffffffffffffffffff168152602001600282015481526020016003820160009054906101000a900473ffffffffffffffffffffffffffffffffffffffff1673ffffffffffffffffffffffffffffffffffffffff1673ffffffffffffffffffffffffffffffffffffffff1681526020016004820160009054906101000a900473ffffffffffffffffffffffffffffffffffffffff1673ffffffffffffffffffffffffffffffffffffffff1673ffffffffffffffffffffffffffffffffffffffff168152602001600582015481526020016006820160009054906101000a900460ff1660028111156113a9576113a8611f15565b5b60028111156113bb576113ba611f15565b5b815250508284815181106113d2576113d1611f44565b5b602002602001018190525082806113e890611e9d565b9350505b80806113f790611e9d565b9150506110b8565b5080945050505050919050565b6001816000016000828254019250508190555050565b600081600001549050919050565b600060028081111561144557611444611f15565b5b82600281111561145857611457611f15565b5b14156114da573373ffffffffffffffffffffffffffffffffffffffff16836060015173ffffffffffffffffffffffffffffffffffffffff161480156114c557506002808111156114ab576114aa611f15565b5b8360c0015160028111156114c2576114c1611f15565b5b14155b6114d05760006114d3565b60015b90506116c5565b600160028111156114ee576114ed611f15565b5b82600281111561150157611500611f15565b5b141561154f573373ffffffffffffffffffffffffffffffffffffffff16836080015173ffffffffffffffffffffffffffffffffffffffff1614611545576000611548565b60015b90506116c5565b6000600281111561156357611562611f15565b5b82600281111561157657611575611f15565b5b14156116c057600073ffffffffffffffffffffffffffffffffffffffff16836080015173ffffffffffffffffffffffffffffffffffffffff161480156115e45750600060028111156115cb576115ca611f15565b5b8360c0015160028111156115e2576115e1611f15565b5b145b80156116ab57503073ffffffffffffffffffffffffffffffffffffffff16836020015173ffffffffffffffffffffffffffffffffffffffff1663081812fc85604001516040518263ffffffff1660e01b81526004016116439190611d7d565b60206040518083038186803b15801561165b57600080fd5b505afa15801561166f573d6000803e3d6000fd5b505050506040513d601f19601f82011682018060405250810190611693919061179b565b73ffffffffffffffffffffffffffffffffffffffff16145b6116b65760006116b9565b60015b90506116c5565b600090505b92915050565b6040518060e0016040528060008152602001600073ffffffffffffffffffffffffffffffffffffffff16815260200160008152602001600073ffffffffffffffffffffffffffffffffffffffff168152602001600073ffffffffffffffffffffffffffffffffffffffff168152602001600081526020016000600281111561175657611755611f15565b5b81525090565b60008135905061176b81612103565b92915050565b60008151905061178081612103565b92915050565b6000813590506117958161211a565b92915050565b6000602082840312156117b1576117b0611fa2565b5b60006117bf84828501611771565b91505092915050565b600080604083850312156117df576117de611fa2565b5b60006117ed8582860161175c565b92505060206117fe85828601611786565b9150509250929050565b60008060006060848603121561182157611820611fa2565b5b600061182f8682870161175c565b935050602061184086828701611786565b925050604061185186828701611786565b9150509250925092565b60006020828403121561187157611870611fa2565b5b600061187f84828501611786565b91505092915050565b60006118948383611a8e565b60e08301905092915050565b6118a981611e43565b82525050565b6118b881611df4565b82525050565b6118c781611df4565b82525050565b6118d681611de2565b82525050565b6118e581611de2565b82525050565b60006118f682611da8565b6119008185611dc0565b935061190b83611d98565b8060005b8381101561193c5781516119238882611888565b975061192e83611db3565b92505060018101905061190f565b5085935050505092915050565b61195281611e55565b82525050565b61196181611e55565b82525050565b61197081611e67565b82525050565b6000611983601183611dd1565b915061198e82611fa7565b602082019050919050565b60006119a6601e83611dd1565b91506119b182611fd0565b602082019050919050565b60006119c9602083611dd1565b91506119d482611ff9565b602082019050919050565b60006119ec601583611dd1565b91506119f782612022565b602082019050919050565b6000611a0f601683611dd1565b9150611a1a8261204b565b602082019050919050565b6000611a32601e83611dd1565b9150611a3d82612074565b602082019050919050565b6000611a55601f83611dd1565b9150611a608261209d565b602082019050919050565b6000611a78601c83611dd1565b9150611a83826120c6565b602082019050919050565b60e082016000820151611aa46000850182611b1c565b506020820151611ab760208501826118cd565b506040820151611aca6040850182611b1c565b506060820151611add60608501826118af565b506080820151611af060808501826118af565b5060a0820151611b0360a0850182611b1c565b5060c0820151611b1660c0850182611949565b50505050565b611b2581611e39565b82525050565b611b3481611e39565b82525050565b6000602082019050611b4f60008301846118be565b92915050565b6000608082019050611b6a60008301876118a0565b611b7760208301866118dc565b611b846040830185611967565b611b916060830184611958565b95945050505050565b6000608082019050611baf60008301876118a0565b611bbc60208301866118dc565b611bc96040830185611b2b565b611bd66060830184611958565b95945050505050565b6000606082019050611bf460008301866118dc565b611c0160208301856118dc565b611c0e6040830184611b2b565b949350505050565b6000608082019050611c2b60008301876118dc565b611c3860208301866118dc565b611c456040830185611b2b565b611c526060830184611958565b95945050505050565b60006020820190508181036000830152611c7581846118eb565b905092915050565b60006020820190508181036000830152611c9681611976565b9050919050565b60006020820190508181036000830152611cb681611999565b9050919050565b60006020820190508181036000830152611cd6816119bc565b9050919050565b60006020820190508181036000830152611cf6816119df565b9050919050565b60006020820190508181036000830152611d1681611a02565b9050919050565b60006020820190508181036000830152611d3681611a25565b9050919050565b60006020820190508181036000830152611d5681611a48565b9050919050565b60006020820190508181036000830152611d7681611a6b565b9050919050565b6000602082019050611d926000830184611b2b565b92915050565b6000819050602082019050919050565b600081519050919050565b6000602082019050919050565b600082825260208201905092915050565b600082825260208201905092915050565b6000611ded82611e19565b9050919050565b6000611dff82611e19565b9050919050565b6000819050611e14826120ef565b919050565b600073ffffffffffffffffffffffffffffffffffffffff82169050919050565b6000819050919050565b6000611e4e82611e79565b9050919050565b6000611e6082611e06565b9050919050565b6000611e7282611e39565b9050919050565b6000611e8482611e8b565b9050919050565b6000611e9682611e19565b9050919050565b6000611ea882611e39565b91507fffffffffffffffffffffffffffffffffffffffffffffffffffffffffffffffff821415611edb57611eda611ee6565b5b600182019050919050565b7f4e487b7100000000000000000000000000000000000000000000000000000000600052601160045260246000fd5b7f4e487b7100000000000000000000000000000000000000000000000000000000600052602160045260246000fd5b7f4e487b7100000000000000000000000000000000000000000000000000000000600052603260045260246000fd5b7f4e487b7100000000000000000000000000000000000000000000000000000000600052604160045260246000fd5b600080fd5b7f6d75737420626520746865206f776e6572000000000000000000000000000000600082015250565b7f506c65617365207375626d6974207468652061736b696e672070726963650000600082015250565b7f466565206d75737420626520657175616c20746f206c697374696e6720666565600082015250565b7f6964206d757374203c3d206974656d20636f756e740000000000000000000000600082015250565b7f6974656d206d757374206265206f6e206d61726b657400000000000000000000600082015250565b7f4e4654206d75737420626520617070726f76656420746f206d61726b65740000600082015250565b7f5265656e7472616e637947756172643a207265656e7472616e742063616c6c00600082015250565b7f5072696365206d757374206265206174206c6561737420312077656900000000600082015250565b60038110612100576120ff611f15565b5b50565b61210c81611de2565b811461211757600080fd5b50565b61212381611e39565b811461212e57600080fd5b5056fea26469706673582212200bd342ad6ccc9bb3b1cf9dfba8d0778961bf30908573dc98201ca00eac20abf364736f6c63430008070033",
			"opcodes": "PUSH1 0x80 PUSH1 0x40 MSTORE PUSH7 0x58D15E17628000 PUSH1 0x4 SSTORE CALLVALUE DUP1 ISZERO PUSH2 0x1B JUMPI PUSH1 0x0 DUP1 REVERT JUMPDEST POP PUSH1 0x1 PUSH1 0x0 DUP2 SWAP1 SSTORE POP CALLER PUSH1 0x3 PUSH1 0x0 PUSH2 0x100 EXP DUP2 SLOAD DUP2 PUSH20 0xFFFFFFFFFFFFFFFFFFFFFFFFFFFFFFFFFFFFFFFF MUL NOT AND SWAP1 DUP4 PUSH20 0xFFFFFFFFFFFFFFFFFFFFFFFFFFFFFFFFFFFFFFFF AND MUL OR SWAP1 SSTORE POP PUSH2 0x2167 DUP1 PUSH2 0x74 PUSH1 0x0 CODECOPY PUSH1 0x0 RETURN INVALID PUSH1 0x80 PUSH1 0x40 MSTORE PUSH1 0x4 CALLDATASIZE LT PUSH2 0x91 JUMPI PUSH1 0x0 CALLDATALOAD PUSH1 0xE0 SHR DUP1 PUSH4 0xA9C07145 GT PUSH2 0x59 JUMPI DUP1 PUSH4 0xA9C07145 EQ PUSH2 0x170 JUMPI DUP1 PUSH4 0xAB76CE16 EQ PUSH2 0x199 JUMPI DUP1 PUSH4 0xB8FE6ABE EQ PUSH2 0x1C4 JUMPI DUP1 PUSH4 0xC23B139E EQ PUSH2 0x1EF JUMPI DUP1 PUSH4 0xEF8DA9DA EQ PUSH2 0x20B JUMPI PUSH2 0x91 JUMP JUMPDEST DUP1 PUSH4 0x332B386B EQ PUSH2 0x96 JUMPI DUP1 PUSH4 0x56246C40 EQ PUSH2 0xC1 JUMPI DUP1 PUSH4 0x58EB2DF5 EQ PUSH2 0xFE JUMPI DUP1 PUSH4 0x5E385B92 EQ PUSH2 0x11A JUMPI DUP1 PUSH4 0x6A1B7ECC EQ PUSH2 0x145 JUMPI JUMPDEST PUSH1 0x0 DUP1 REVERT JUMPDEST CALLVALUE DUP1 ISZERO PUSH2 0xA2 JUMPI PUSH1 0x0 DUP1 REVERT JUMPDEST POP PUSH2 0xAB PUSH2 0x236 JUMP JUMPDEST PUSH1 0x40 MLOAD PUSH2 0xB8 SWAP2 SWAP1 PUSH2 0x1C5B JUMP JUMPDEST PUSH1 0x40 MLOAD DUP1 SWAP2 SUB SWAP1 RETURN JUMPDEST CALLVALUE DUP1 ISZERO PUSH2 0xCD JUMPI PUSH1 0x0 DUP1 REVERT JUMPDEST POP PUSH2 0xE8 PUSH1 0x4 DUP1 CALLDATASIZE SUB DUP2 ADD SWAP1 PUSH2 0xE3 SWAP2 SWAP1 PUSH2 0x185B JUMP JUMPDEST PUSH2 0x247 JUMP JUMPDEST PUSH1 0x40 MLOAD PUSH2 0xF5 SWAP2 SWAP1 PUSH2 0x1D7D JUMP JUMPDEST PUSH1 0x40 MLOAD DUP1 SWAP2 SUB SWAP1 RETURN JUMPDEST PUSH2 0x118 PUSH1 0x4 DUP1 CALLDATASIZE SUB DUP2 ADD SWAP1 PUSH2 0x113 SWAP2 SWAP1 PUSH2 0x1808 JUMP JUMPDEST PUSH2 0x267 JUMP JUMPDEST STOP JUMPDEST CALLVALUE DUP1 ISZERO PUSH2 0x126 JUMPI PUSH1 0x0 DUP1 REVERT JUMPDEST POP PUSH2 0x12F PUSH2 0x6E1 JUMP JUMPDEST PUSH1 0x40 MLOAD PUSH2 0x13C SWAP2 SWAP1 PUSH2 0x1B3A JUMP JUMPDEST PUSH1 0x40 MLOAD DUP1 SWAP2 SUB SWAP1 RETURN JUMPDEST CALLVALUE DUP1 ISZERO PUSH2 0x151 JUMPI PUSH1 0x0 DUP1 REVERT JUMPDEST POP PUSH2 0x15A PUSH2 0x707 JUMP JUMPDEST PUSH1 0x40 MLOAD PUSH2 0x167 SWAP2 SWAP1 PUSH2 0x1D7D JUMP JUMPDEST PUSH1 0x40 MLOAD DUP1 SWAP2 SUB SWAP1 RETURN JUMPDEST CALLVALUE DUP1 ISZERO PUSH2 0x17C JUMPI PUSH1 0x0 DUP1 REVERT JUMPDEST POP PUSH2 0x197 PUSH1 0x4 DUP1 CALLDATASIZE SUB DUP2 ADD SWAP1 PUSH2 0x192 SWAP2 SWAP1 PUSH2 0x185B JUMP JUMPDEST PUSH2 0x70D JUMP JUMPDEST STOP JUMPDEST CALLVALUE DUP1 ISZERO PUSH2 0x1A5 JUMPI PUSH1 0x0 DUP1 REVERT JUMPDEST POP PUSH2 0x1AE PUSH2 0xB61 JUMP JUMPDEST PUSH1 0x40 MLOAD PUSH2 0x1BB SWAP2 SWAP1 PUSH2 0x1C5B JUMP JUMPDEST PUSH1 0x40 MLOAD DUP1 SWAP2 SUB SWAP1 RETURN JUMPDEST CALLVALUE DUP1 ISZERO PUSH2 0x1D0 JUMPI PUSH1 0x0 DUP1 REVERT JUMPDEST POP PUSH2 0x1D9 PUSH2 0xB72 JUMP JUMPDEST PUSH1 0x40 MLOAD PUSH2 0x1E6 SWAP2 SWAP1 PUSH2 0x1D7D JUMP JUMPDEST PUSH1 0x40 MLOAD DUP1 SWAP2 SUB SWAP1 RETURN JUMPDEST PUSH2 0x209 PUSH1 0x4 DUP1 CALLDATASIZE SUB DUP2 ADD SWAP1 PUSH2 0x204 SWAP2 SWAP1 PUSH2 0x17C8 JUMP JUMPDEST PUSH2 0xB7C JUMP JUMPDEST STOP JUMPDEST CALLVALUE DUP1 ISZERO PUSH2 0x217 JUMPI PUSH1 0x0 DUP1 REVERT JUMPDEST POP PUSH2 0x220 PUSH2 0xE7E JUMP JUMPDEST PUSH1 0x40 MLOAD PUSH2 0x22D SWAP2 SWAP1 PUSH2 0x1C5B JUMP JUMPDEST PUSH1 0x40 MLOAD DUP1 SWAP2 SUB SWAP1 RETURN JUMPDEST PUSH1 0x60 PUSH2 0x242 PUSH1 0x0 PUSH2 0xE8F JUMP JUMPDEST SWAP1 POP SWAP1 JUMP JUMPDEST PUSH1 0x0 PUSH1 0x5 PUSH1 0x0 DUP4 DUP2 MSTORE PUSH1 0x20 ADD SWAP1 DUP2 MSTORE PUSH1 0x20 ADD PUSH1 0x0 KECCAK256 PUSH1 0x5 ADD SLOAD SWAP1 POP SWAP2 SWAP1 POP JUMP JUMPDEST PUSH1 0x2 PUSH1 0x0 SLOAD EQ ISZERO PUSH2 0x2AD JUMPI PUSH1 0x40 MLOAD PUSH32 0x8C379A000000000000000000000000000000000000000000000000000000000 DUP2 MSTORE PUSH1 0x4 ADD PUSH2 0x2A4 SWAP1 PUSH2 0x1D3D JUMP JUMPDEST PUSH1 0x40 MLOAD DUP1 SWAP2 SUB SWAP1 REVERT JUMPDEST PUSH1 0x2 PUSH1 0x0 DUP2 SWAP1 SSTORE POP PUSH1 0x0 DUP2 GT PUSH2 0x2F8 JUMPI PUSH1 0x40 MLOAD PUSH32 0x8C379A000000000000000000000000000000000000000000000000000000000 DUP2 MSTORE PUSH1 0x4 ADD PUSH2 0x2EF SWAP1 PUSH2 0x1D5D JUMP JUMPDEST PUSH1 0x40 MLOAD DUP1 SWAP2 SUB SWAP1 REVERT JUMPDEST PUSH1 0x4 SLOAD CALLVALUE EQ PUSH2 0x33C JUMPI PUSH1 0x40 MLOAD PUSH32 0x8C379A000000000000000000000000000000000000000000000000000000000 DUP2 MSTORE PUSH1 0x4 ADD PUSH2 0x333 SWAP1 PUSH2 0x1CBD JUMP JUMPDEST PUSH1 0x40 MLOAD DUP1 SWAP2 SUB SWAP1 REVERT JUMPDEST PUSH2 0x346 PUSH1 0x1 PUSH2 0x140C JUMP JUMPDEST PUSH1 0x0 PUSH2 0x352 PUSH1 0x1 PUSH2 0x1422 JUMP JUMPDEST SWAP1 POP PUSH1 0x40 MLOAD DUP1 PUSH1 0xE0 ADD PUSH1 0x40 MSTORE DUP1 DUP3 DUP2 MSTORE PUSH1 0x20 ADD DUP6 PUSH20 0xFFFFFFFFFFFFFFFFFFFFFFFFFFFFFFFFFFFFFFFF AND DUP2 MSTORE PUSH1 0x20 ADD DUP5 DUP2 MSTORE PUSH1 0x20 ADD CALLER PUSH20 0xFFFFFFFFFFFFFFFFFFFFFFFFFFFFFFFFFFFFFFFF AND DUP2 MSTORE PUSH1 0x20 ADD PUSH1 0x0 PUSH20 0xFFFFFFFFFFFFFFFFFFFFFFFFFFFFFFFFFFFFFFFF AND DUP2 MSTORE PUSH1 0x20 ADD DUP4 DUP2 MSTORE PUSH1 0x20 ADD PUSH1 0x0 PUSH1 0x2 DUP2 GT ISZERO PUSH2 0x3DA JUMPI PUSH2 0x3D9 PUSH2 0x1F15 JUMP JUMPDEST JUMPDEST DUP2 MSTORE POP PUSH1 0x5 PUSH1 0x0 DUP4 DUP2 MSTORE PUSH1 0x20 ADD SWAP1 DUP2 MSTORE PUSH1 0x20 ADD PUSH1 0x0 KECCAK256 PUSH1 0x0 DUP3 ADD MLOAD DUP2 PUSH1 0x0 ADD SSTORE PUSH1 0x20 DUP3 ADD MLOAD DUP2 PUSH1 0x1 ADD PUSH1 0x0 PUSH2 0x100 EXP DUP2 SLOAD DUP2 PUSH20 0xFFFFFFFFFFFFFFFFFFFFFFFFFFFFFFFFFFFFFFFF MUL NOT AND SWAP1 DUP4 PUSH20 0xFFFFFFFFFFFFFFFFFFFFFFFFFFFFFFFFFFFFFFFF AND MUL OR SWAP1 SSTORE POP PUSH1 0x40 DUP3 ADD MLOAD DUP2 PUSH1 0x2 ADD SSTORE PUSH1 0x60 DUP3 ADD MLOAD DUP2 PUSH1 0x3 ADD PUSH1 0x0 PUSH2 0x100 EXP DUP2 SLOAD DUP2 PUSH20 0xFFFFFFFFFFFFFFFFFFFFFFFFFFFFFFFFFFFFFFFF MUL NOT AND SWAP1 DUP4 PUSH20 0xFFFFFFFFFFFFFFFFFFFFFFFFFFFFFFFFFFFFFFFF AND MUL OR SWAP1 SSTORE POP PUSH1 0x80 DUP3 ADD MLOAD DUP2 PUSH1 0x4 ADD PUSH1 0x0 PUSH2 0x100 EXP DUP2 SLOAD DUP2 PUSH20 0xFFFFFFFFFFFFFFFFFFFFFFFFFFFFFFFFFFFFFFFF MUL NOT AND SWAP1 DUP4 PUSH20 0xFFFFFFFFFFFFFFFFFFFFFFFFFFFFFFFFFFFFFFFF AND MUL OR SWAP1 SSTORE POP PUSH1 0xA0 DUP3 ADD MLOAD DUP2 PUSH1 0x5 ADD SSTORE PUSH1 0xC0 DUP3 ADD MLOAD DUP2 PUSH1 0x6 ADD PUSH1 0x0 PUSH2 0x100 EXP DUP2 SLOAD DUP2 PUSH1 0xFF MUL NOT AND SWAP1 DUP4 PUSH1 0x2 DUP2 GT ISZERO PUSH2 0x50E JUMPI PUSH2 0x50D PUSH2 0x1F15 JUMP JUMPDEST JUMPDEST MUL OR SWAP1 SSTORE POP SWAP1 POP POP ADDRESS PUSH20 0xFFFFFFFFFFFFFFFFFFFFFFFFFFFFFFFFFFFFFFFF AND DUP5 PUSH20 0xFFFFFFFFFFFFFFFFFFFFFFFFFFFFFFFFFFFFFFFF AND PUSH4 0x81812FC DUP6 PUSH1 0x40 MLOAD DUP3 PUSH4 0xFFFFFFFF AND PUSH1 0xE0 SHL DUP2 MSTORE PUSH1 0x4 ADD PUSH2 0x566 SWAP2 SWAP1 PUSH2 0x1D7D JUMP JUMPDEST PUSH1 0x20 PUSH1 0x40 MLOAD DUP1 DUP4 SUB DUP2 DUP7 DUP1 EXTCODESIZE ISZERO DUP1 ISZERO PUSH2 0x57E JUMPI PUSH1 0x0 DUP1 REVERT JUMPDEST POP GAS STATICCALL ISZERO DUP1 ISZERO PUSH2 0x592 JUMPI RETURNDATASIZE PUSH1 0x0 DUP1 RETURNDATACOPY RETURNDATASIZE PUSH1 0x0 REVERT JUMPDEST POP POP POP POP PUSH1 0x40 MLOAD RETURNDATASIZE PUSH1 0x1F NOT PUSH1 0x1F DUP3 ADD AND DUP3 ADD DUP1 PUSH1 0x40 MSTORE POP DUP2 ADD SWAP1 PUSH2 0x5B6 SWAP2 SWAP1 PUSH2 0x179B JUMP JUMPDEST PUSH20 0xFFFFFFFFFFFFFFFFFFFFFFFFFFFFFFFFFFFFFFFF AND EQ PUSH2 0x60C JUMPI PUSH1 0x40 MLOAD PUSH32 0x8C379A000000000000000000000000000000000000000000000000000000000 DUP2 MSTORE PUSH1 0x4 ADD PUSH2 0x603 SWAP1 PUSH2 0x1D1D JUMP JUMPDEST PUSH1 0x40 MLOAD DUP1 SWAP2 SUB SWAP1 REVERT JUMPDEST DUP4 PUSH20 0xFFFFFFFFFFFFFFFFFFFFFFFFFFFFFFFFFFFFFFFF AND PUSH4 0x23B872DD CALLER ADDRESS DUP7 PUSH1 0x40 MLOAD DUP5 PUSH4 0xFFFFFFFF AND PUSH1 0xE0 SHL DUP2 MSTORE PUSH1 0x4 ADD PUSH2 0x649 SWAP4 SWAP3 SWAP2 SWAP1 PUSH2 0x1BDF JUMP JUMPDEST PUSH1 0x0 PUSH1 0x40 MLOAD DUP1 DUP4 SUB DUP2 PUSH1 0x0 DUP8 DUP1 EXTCODESIZE ISZERO DUP1 ISZERO PUSH2 0x663 JUMPI PUSH1 0x0 DUP1 REVERT JUMPDEST POP GAS CALL ISZERO DUP1 ISZERO PUSH2 0x677 JUMPI RETURNDATASIZE PUSH1 0x0 DUP1 RETURNDATACOPY RETURNDATASIZE PUSH1 0x0 REVERT JUMPDEST POP POP POP POP DUP3 DUP5 PUSH20 0xFFFFFFFFFFFFFFFFFFFFFFFFFFFFFFFFFFFFFFFF AND DUP3 PUSH32 0xB0A8DCFC08F1150D20DEF3C46440BE585F61CCE1BDBB0FDF16BC597F471C6E70 CALLER PUSH1 0x0 DUP8 PUSH1 0x0 PUSH1 0x40 MLOAD PUSH2 0x6CB SWAP5 SWAP4 SWAP3 SWAP2 SWAP1 PUSH2 0x1C16 JUMP JUMPDEST PUSH1 0x40 MLOAD DUP1 SWAP2 SUB SWAP1 LOG4 POP PUSH1 0x1 PUSH1 0x0 DUP2 SWAP1 SSTORE POP POP POP POP JUMP JUMPDEST PUSH1 0x3 PUSH1 0x0 SWAP1 SLOAD SWAP1 PUSH2 0x100 EXP SWAP1 DIV PUSH20 0xFFFFFFFFFFFFFFFFFFFFFFFFFFFFFFFFFFFFFFFF AND DUP2 JUMP JUMPDEST PUSH1 0x4 SLOAD DUP2 JUMP JUMPDEST PUSH1 0x2 PUSH1 0x0 SLOAD EQ ISZERO PUSH2 0x753 JUMPI PUSH1 0x40 MLOAD PUSH32 0x8C379A000000000000000000000000000000000000000000000000000000000 DUP2 MSTORE PUSH1 0x4 ADD PUSH2 0x74A SWAP1 PUSH2 0x1D3D JUMP JUMPDEST PUSH1 0x40 MLOAD DUP1 SWAP2 SUB SWAP1 REVERT JUMPDEST PUSH1 0x2 PUSH1 0x0 DUP2 SWAP1 SSTORE POP PUSH2 0x765 PUSH1 0x1 PUSH2 0x1422 JUMP JUMPDEST DUP2 GT ISZERO PUSH2 0x7A7 JUMPI PUSH1 0x40 MLOAD PUSH32 0x8C379A000000000000000000000000000000000000000000000000000000000 DUP2 MSTORE PUSH1 0x4 ADD PUSH2 0x79E SWAP1 PUSH2 0x1CDD JUMP JUMPDEST PUSH1 0x40 MLOAD DUP1 SWAP2 SUB SWAP1 REVERT JUMPDEST PUSH1 0x0 PUSH1 0x2 DUP2 GT ISZERO PUSH2 0x7BB JUMPI PUSH2 0x7BA PUSH2 0x1F15 JUMP JUMPDEST JUMPDEST PUSH1 0x5 PUSH1 0x0 DUP4 DUP2 MSTORE PUSH1 0x20 ADD SWAP1 DUP2 MSTORE PUSH1 0x20 ADD PUSH1 0x0 KECCAK256 PUSH1 0x6 ADD PUSH1 0x0 SWAP1 SLOAD SWAP1 PUSH2 0x100 EXP SWAP1 DIV PUSH1 0xFF AND PUSH1 0x2 DUP2 GT ISZERO PUSH2 0x7F1 JUMPI PUSH2 0x7F0 PUSH2 0x1F15 JUMP JUMPDEST JUMPDEST EQ PUSH2 0x831 JUMPI PUSH1 0x40 MLOAD PUSH32 0x8C379A000000000000000000000000000000000000000000000000000000000 DUP2 MSTORE PUSH1 0x4 ADD PUSH2 0x828 SWAP1 PUSH2 0x1CFD JUMP JUMPDEST PUSH1 0x40 MLOAD DUP1 SWAP2 SUB SWAP1 REVERT JUMPDEST PUSH1 0x0 PUSH1 0x5 PUSH1 0x0 DUP4 DUP2 MSTORE PUSH1 0x20 ADD SWAP1 DUP2 MSTORE PUSH1 0x20 ADD PUSH1 0x0 KECCAK256 SWAP1 POP CALLER PUSH20 0xFFFFFFFFFFFFFFFFFFFFFFFFFFFFFFFFFFFFFFFF AND DUP2 PUSH1 0x1 ADD PUSH1 0x0 SWAP1 SLOAD SWAP1 PUSH2 0x100 EXP SWAP1 DIV PUSH20 0xFFFFFFFFFFFFFFFFFFFFFFFFFFFFFFFFFFFFFFFF AND PUSH20 0xFFFFFFFFFFFFFFFFFFFFFFFFFFFFFFFFFFFFFFFF AND PUSH4 0x6352211E DUP4 PUSH1 0x2 ADD SLOAD PUSH1 0x40 MLOAD DUP3 PUSH4 0xFFFFFFFF AND PUSH1 0xE0 SHL DUP2 MSTORE PUSH1 0x4 ADD PUSH2 0x8C0 SWAP2 SWAP1 PUSH2 0x1D7D JUMP JUMPDEST PUSH1 0x20 PUSH1 0x40 MLOAD DUP1 DUP4 SUB DUP2 DUP7 DUP1 EXTCODESIZE ISZERO DUP1 ISZERO PUSH2 0x8D8 JUMPI PUSH1 0x0 DUP1 REVERT JUMPDEST POP GAS STATICCALL ISZERO DUP1 ISZERO PUSH2 0x8EC JUMPI RETURNDATASIZE PUSH1 0x0 DUP1 RETURNDATACOPY RETURNDATASIZE PUSH1 0x0 REVERT JUMPDEST POP POP POP POP PUSH1 0x40 MLOAD RETURNDATASIZE PUSH1 0x1F NOT PUSH1 0x1F DUP3 ADD AND DUP3 ADD DUP1 PUSH1 0x40 MSTORE POP DUP2 ADD SWAP1 PUSH2 0x910 SWAP2 SWAP1 PUSH2 0x179B JUMP JUMPDEST PUSH20 0xFFFFFFFFFFFFFFFFFFFFFFFFFFFFFFFFFFFFFFFF AND EQ PUSH2 0x966 JUMPI PUSH1 0x40 MLOAD PUSH32 0x8C379A000000000000000000000000000000000000000000000000000000000 DUP2 MSTORE PUSH1 0x4 ADD PUSH2 0x95D SWAP1 PUSH2 0x1C7D JUMP JUMPDEST PUSH1 0x40 MLOAD DUP1 SWAP2 SUB SWAP1 REVERT JUMPDEST ADDRESS PUSH20 0xFFFFFFFFFFFFFFFFFFFFFFFFFFFFFFFFFFFFFFFF AND DUP2 PUSH1 0x1 ADD PUSH1 0x0 SWAP1 SLOAD SWAP1 PUSH2 0x100 EXP SWAP1 DIV PUSH20 0xFFFFFFFFFFFFFFFFFFFFFFFFFFFFFFFFFFFFFFFF AND PUSH20 0xFFFFFFFFFFFFFFFFFFFFFFFFFFFFFFFFFFFFFFFF AND PUSH4 0x81812FC DUP4 PUSH1 0x2 ADD SLOAD PUSH1 0x40 MLOAD DUP3 PUSH4 0xFFFFFFFF AND PUSH1 0xE0 SHL DUP2 MSTORE PUSH1 0x4 ADD PUSH2 0x9DE SWAP2 SWAP1 PUSH2 0x1D7D JUMP JUMPDEST PUSH1 0x20 PUSH1 0x40 MLOAD DUP1 DUP4 SUB DUP2 DUP7 DUP1 EXTCODESIZE ISZERO DUP1 ISZERO PUSH2 0x9F6 JUMPI PUSH1 0x0 DUP1 REVERT JUMPDEST POP GAS STATICCALL ISZERO DUP1 ISZERO PUSH2 0xA0A JUMPI RETURNDATASIZE PUSH1 0x0 DUP1 RETURNDATACOPY RETURNDATASIZE PUSH1 0x0 REVERT JUMPDEST POP POP POP POP PUSH1 0x40 MLOAD RETURNDATASIZE PUSH1 0x1F NOT PUSH1 0x1F DUP3 ADD AND DUP3 ADD DUP1 PUSH1 0x40 MSTORE POP DUP2 ADD SWAP1 PUSH2 0xA2E SWAP2 SWAP1 PUSH2 0x179B JUMP JUMPDEST PUSH20 0xFFFFFFFFFFFFFFFFFFFFFFFFFFFFFFFFFFFFFFFF AND EQ PUSH2 0xA84 JUMPI PUSH1 0x40 MLOAD PUSH32 0x8C379A000000000000000000000000000000000000000000000000000000000 DUP2 MSTORE PUSH1 0x4 ADD PUSH2 0xA7B SWAP1 PUSH2 0x1D1D JUMP JUMPDEST PUSH1 0x40 MLOAD DUP1 SWAP2 SUB SWAP1 REVERT JUMPDEST PUSH1 0x2 DUP2 PUSH1 0x6 ADD PUSH1 0x0 PUSH2 0x100 EXP DUP2 SLOAD DUP2 PUSH1 0xFF MUL NOT AND SWAP1 DUP4 PUSH1 0x2 DUP2 GT ISZERO PUSH2 0xAAC JUMPI PUSH2 0xAAB PUSH2 0x1F15 JUMP JUMPDEST JUMPDEST MUL OR SWAP1 SSTORE POP DUP1 PUSH1 0x2 ADD SLOAD DUP2 PUSH1 0x1 ADD PUSH1 0x0 SWAP1 SLOAD SWAP1 PUSH2 0x100 EXP SWAP1 DIV PUSH20 0xFFFFFFFFFFFFFFFFFFFFFFFFFFFFFFFFFFFFFFFF AND PUSH20 0xFFFFFFFFFFFFFFFFFFFFFFFFFFFFFFFFFFFFFFFF AND DUP4 PUSH32 0x64A9702DA2C4A0A9AF4CABDA06E4715203ED7B0B3BB67ECA6D3168E1C519BFF DUP5 PUSH1 0x3 ADD PUSH1 0x0 SWAP1 SLOAD SWAP1 PUSH2 0x100 EXP SWAP1 DIV PUSH20 0xFFFFFFFFFFFFFFFFFFFFFFFFFFFFFFFFFFFFFFFF AND PUSH1 0x0 DUP1 PUSH1 0x2 PUSH1 0x40 MLOAD PUSH2 0xB4D SWAP5 SWAP4 SWAP3 SWAP2 SWAP1 PUSH2 0x1B55 JUMP JUMPDEST PUSH1 0x40 MLOAD DUP1 SWAP2 SUB SWAP1 LOG4 POP PUSH1 0x1 PUSH1 0x0 DUP2 SWAP1 SSTORE POP POP JUMP JUMPDEST PUSH1 0x60 PUSH2 0xB6D PUSH1 0x1 PUSH2 0xE8F JUMP JUMPDEST SWAP1 POP SWAP1 JUMP JUMPDEST PUSH1 0x0 PUSH1 0x4 SLOAD SWAP1 POP SWAP1 JUMP JUMPDEST PUSH1 0x2 PUSH1 0x0 SLOAD EQ ISZERO PUSH2 0xBC2 JUMPI PUSH1 0x40 MLOAD PUSH32 0x8C379A000000000000000000000000000000000000000000000000000000000 DUP2 MSTORE PUSH1 0x4 ADD PUSH2 0xBB9 SWAP1 PUSH2 0x1D3D JUMP JUMPDEST PUSH1 0x40 MLOAD DUP1 SWAP2 SUB SWAP1 REVERT JUMPDEST PUSH1 0x2 PUSH1 0x0 DUP2 SWAP1 SSTORE POP PUSH1 0x0 PUSH1 0x5 PUSH1 0x0 DUP4 DUP2 MSTORE PUSH1 0x20 ADD SWAP1 DUP2 MSTORE PUSH1 0x20 ADD PUSH1 0x0 KECCAK256 SWAP1 POP PUSH1 0x0 DUP2 PUSH1 0x5 ADD SLOAD SWAP1 POP PUSH1 0x0 DUP3 PUSH1 0x2 ADD SLOAD SWAP1 POP DUP2 CALLVALUE EQ PUSH2 0xC35 JUMPI PUSH1 0x40 MLOAD PUSH32 0x8C379A000000000000000000000000000000000000000000000000000000000 DUP2 MSTORE PUSH1 0x4 ADD PUSH2 0xC2C SWAP1 PUSH2 0x1C9D JUMP JUMPDEST PUSH1 0x40 MLOAD DUP1 SWAP2 SUB SWAP1 REVERT JUMPDEST CALLER DUP4 PUSH1 0x4 ADD PUSH1 0x0 PUSH2 0x100 EXP DUP2 SLOAD DUP2 PUSH20 0xFFFFFFFFFFFFFFFFFFFFFFFFFFFFFFFFFFFFFFFF MUL NOT AND SWAP1 DUP4 PUSH20 0xFFFFFFFFFFFFFFFFFFFFFFFFFFFFFFFFFFFFFFFF AND MUL OR SWAP1 SSTORE POP PUSH1 0x1 DUP4 PUSH1 0x6 ADD PUSH1 0x0 PUSH2 0x100 EXP DUP2 SLOAD DUP2 PUSH1 0xFF MUL NOT AND SWAP1 DUP4 PUSH1 0x2 DUP2 GT ISZERO PUSH2 0xCA0 JUMPI PUSH2 0xC9F PUSH2 0x1F15 JUMP JUMPDEST JUMPDEST MUL OR SWAP1 SSTORE POP PUSH2 0xCAF PUSH1 0x2 PUSH2 0x140C JUMP JUMPDEST DUP5 PUSH20 0xFFFFFFFFFFFFFFFFFFFFFFFFFFFFFFFFFFFFFFFF AND PUSH4 0x23B872DD ADDRESS CALLER DUP5 PUSH1 0x40 MLOAD DUP5 PUSH4 0xFFFFFFFF AND PUSH1 0xE0 SHL DUP2 MSTORE PUSH1 0x4 ADD PUSH2 0xCEC SWAP4 SWAP3 SWAP2 SWAP1 PUSH2 0x1BDF JUMP JUMPDEST PUSH1 0x0 PUSH1 0x40 MLOAD DUP1 DUP4 SUB DUP2 PUSH1 0x0 DUP8 DUP1 EXTCODESIZE ISZERO DUP1 ISZERO PUSH2 0xD06 JUMPI PUSH1 0x0 DUP1 REVERT JUMPDEST POP GAS CALL ISZERO DUP1 ISZERO PUSH2 0xD1A JUMPI RETURNDATASIZE PUSH1 0x0 DUP1 RETURNDATACOPY RETURNDATASIZE PUSH1 0x0 REVERT JUMPDEST POP POP POP POP PUSH1 0x3 PUSH1 0x0 SWAP1 SLOAD SWAP1 PUSH2 0x100 EXP SWAP1 DIV PUSH20 0xFFFFFFFFFFFFFFFFFFFFFFFFFFFFFFFFFFFFFFFF AND PUSH20 0xFFFFFFFFFFFFFFFFFFFFFFFFFFFFFFFFFFFFFFFF AND PUSH2 0x8FC PUSH1 0x4 SLOAD SWAP1 DUP2 ISZERO MUL SWAP1 PUSH1 0x40 MLOAD PUSH1 0x0 PUSH1 0x40 MLOAD DUP1 DUP4 SUB DUP2 DUP6 DUP9 DUP9 CALL SWAP4 POP POP POP POP ISZERO DUP1 ISZERO PUSH2 0xD88 JUMPI RETURNDATASIZE PUSH1 0x0 DUP1 RETURNDATACOPY RETURNDATASIZE PUSH1 0x0 REVERT JUMPDEST POP DUP3 PUSH1 0x3 ADD PUSH1 0x0 SWAP1 SLOAD SWAP1 PUSH2 0x100 EXP SWAP1 DIV PUSH20 0xFFFFFFFFFFFFFFFFFFFFFFFFFFFFFFFFFFFFFFFF AND PUSH20 0xFFFFFFFFFFFFFFFFFFFFFFFFFFFFFFFFFFFFFFFF AND PUSH2 0x8FC CALLVALUE SWAP1 DUP2 ISZERO MUL SWAP1 PUSH1 0x40 MLOAD PUSH1 0x0 PUSH1 0x40 MLOAD DUP1 DUP4 SUB DUP2 DUP6 DUP9 DUP9 CALL SWAP4 POP POP POP POP ISZERO DUP1 ISZERO PUSH2 0xDF3 JUMPI RETURNDATASIZE PUSH1 0x0 DUP1 RETURNDATACOPY RETURNDATASIZE PUSH1 0x0 REVERT JUMPDEST POP DUP1 DUP6 PUSH20 0xFFFFFFFFFFFFFFFFFFFFFFFFFFFFFFFFFFFFFFFF AND DUP6 PUSH32 0x64A9702DA2C4A0A9AF4CABDA06E4715203ED7B0B3BB67ECA6D3168E1C519BFF DUP7 PUSH1 0x3 ADD PUSH1 0x0 SWAP1 SLOAD SWAP1 PUSH2 0x100 EXP SWAP1 DIV PUSH20 0xFFFFFFFFFFFFFFFFFFFFFFFFFFFFFFFFFFFFFFFF AND CALLER DUP8 PUSH1 0x1 PUSH1 0x40 MLOAD PUSH2 0xE67 SWAP5 SWAP4 SWAP3 SWAP2 SWAP1 PUSH2 0x1B9A JUMP JUMPDEST PUSH1 0x40 MLOAD DUP1 SWAP2 SUB SWAP1 LOG4 POP POP POP PUSH1 0x1 PUSH1 0x0 DUP2 SWAP1 SSTORE POP POP POP JUMP JUMPDEST PUSH1 0x60 PUSH2 0xE8A PUSH1 0x2 PUSH2 0xE8F JUMP JUMPDEST SWAP1 POP SWAP1 JUMP JUMPDEST PUSH1 0x60 PUSH1 0x0 PUSH2 0xE9D PUSH1 0x1 PUSH2 0x1422 JUMP JUMPDEST SWAP1 POP PUSH1 0x0 DUP1 PUSH1 0x1 SWAP1 POP JUMPDEST DUP3 DUP2 GT PUSH2 0x1057 JUMPI PUSH2 0x1030 PUSH1 0x5 PUSH1 0x0 DUP4 DUP2 MSTORE PUSH1 0x20 ADD SWAP1 DUP2 MSTORE PUSH1 0x20 ADD PUSH1 0x0 KECCAK256 PUSH1 0x40 MLOAD DUP1 PUSH1 0xE0 ADD PUSH1 0x40 MSTORE SWAP1 DUP2 PUSH1 0x0 DUP3 ADD SLOAD DUP2 MSTORE PUSH1 0x20 ADD PUSH1 0x1 DUP3 ADD PUSH1 0x0 SWAP1 SLOAD SWAP1 PUSH2 0x100 EXP SWAP1 DIV PUSH20 0xFFFFFFFFFFFFFFFFFFFFFFFFFFFFFFFFFFFFFFFF AND PUSH20 0xFFFFFFFFFFFFFFFFFFFFFFFFFFFFFFFFFFFFFFFF AND PUSH20 0xFFFFFFFFFFFFFFFFFFFFFFFFFFFFFFFFFFFFFFFF AND DUP2 MSTORE PUSH1 0x20 ADD PUSH1 0x2 DUP3 ADD SLOAD DUP2 MSTORE PUSH1 0x20 ADD PUSH1 0x3 DUP3 ADD PUSH1 0x0 SWAP1 SLOAD SWAP1 PUSH2 0x100 EXP SWAP1 DIV PUSH20 0xFFFFFFFFFFFFFFFFFFFFFFFFFFFFFFFFFFFFFFFF AND PUSH20 0xFFFFFFFFFFFFFFFFFFFFFFFFFFFFFFFFFFFFFFFF AND PUSH20 0xFFFFFFFFFFFFFFFFFFFFFFFFFFFFFFFFFFFFFFFF AND DUP2 MSTORE PUSH1 0x20 ADD PUSH1 0x4 DUP3 ADD PUSH1 0x0 SWAP1 SLOAD SWAP1 PUSH2 0x100 EXP SWAP1 DIV PUSH20 0xFFFFFFFFFFFFFFFFFFFFFFFFFFFFFFFFFFFFFFFF AND PUSH20 0xFFFFFFFFFFFFFFFFFFFFFFFFFFFFFFFFFFFFFFFF AND PUSH20 0xFFFFFFFFFFFFFFFFFFFFFFFFFFFFFFFFFFFFFFFF AND DUP2 MSTORE PUSH1 0x20 ADD PUSH1 0x5 DUP3 ADD SLOAD DUP2 MSTORE PUSH1 0x20 ADD PUSH1 0x6 DUP3 ADD PUSH1 0x0 SWAP1 SLOAD SWAP1 PUSH2 0x100 EXP SWAP1 DIV PUSH1 0xFF AND PUSH1 0x2 DUP2 GT ISZERO PUSH2 0x1014 JUMPI PUSH2 0x1013 PUSH2 0x1F15 JUMP JUMPDEST JUMPDEST PUSH1 0x2 DUP2 GT ISZERO PUSH2 0x1026 JUMPI PUSH2 0x1025 PUSH2 0x1F15 JUMP JUMPDEST JUMPDEST DUP2 MSTORE POP POP DUP7 PUSH2 0x1430 JUMP JUMPDEST ISZERO PUSH2 0x1044 JUMPI DUP2 DUP1 PUSH2 0x1040 SWAP1 PUSH2 0x1E9D JUMP JUMPDEST SWAP3 POP POP JUMPDEST DUP1 DUP1 PUSH2 0x104F SWAP1 PUSH2 0x1E9D JUMP JUMPDEST SWAP2 POP POP PUSH2 0xEA7 JUMP JUMPDEST POP PUSH1 0x0 DUP1 DUP3 PUSH8 0xFFFFFFFFFFFFFFFF DUP2 GT ISZERO PUSH2 0x1075 JUMPI PUSH2 0x1074 PUSH2 0x1F73 JUMP JUMPDEST JUMPDEST PUSH1 0x40 MLOAD SWAP1 DUP1 DUP3 MSTORE DUP1 PUSH1 0x20 MUL PUSH1 0x20 ADD DUP3 ADD PUSH1 0x40 MSTORE DUP1 ISZERO PUSH2 0x10AE JUMPI DUP2 PUSH1 0x20 ADD JUMPDEST PUSH2 0x109B PUSH2 0x16CB JUMP JUMPDEST DUP2 MSTORE PUSH1 0x20 ADD SWAP1 PUSH1 0x1 SWAP1 SUB SWAP1 DUP2 PUSH2 0x1093 JUMPI SWAP1 POP JUMPDEST POP SWAP1 POP PUSH1 0x0 PUSH1 0x1 SWAP1 POP JUMPDEST DUP5 DUP2 GT PUSH2 0x13FF JUMPI PUSH2 0x1241 PUSH1 0x5 PUSH1 0x0 DUP4 DUP2 MSTORE PUSH1 0x20 ADD SWAP1 DUP2 MSTORE PUSH1 0x20 ADD PUSH1 0x0 KECCAK256 PUSH1 0x40 MLOAD DUP1 PUSH1 0xE0 ADD PUSH1 0x40 MSTORE SWAP1 DUP2 PUSH1 0x0 DUP3 ADD SLOAD DUP2 MSTORE PUSH1 0x20 ADD PUSH1 0x1 DUP3 ADD PUSH1 0x0 SWAP1 SLOAD SWAP1 PUSH2 0x100 EXP SWAP1 DIV PUSH20 0xFFFFFFFFFFFFFFFFFFFFFFFFFFFFFFFFFFFFFFFF AND PUSH20 0xFFFFFFFFFFFFFFFFFFFFFFFFFFFFFFFFFFFFFFFF AND PUSH20 0xFFFFFFFFFFFFFFFFFFFFFFFFFFFFFFFFFFFFFFFF AND DUP2 MSTORE PUSH1 0x20 ADD PUSH1 0x2 DUP3 ADD SLOAD DUP2 MSTORE PUSH1 0x20 ADD PUSH1 0x3 DUP3 ADD PUSH1 0x0 SWAP1 SLOAD SWAP1 PUSH2 0x100 EXP SWAP1 DIV PUSH20 0xFFFFFFFFFFFFFFFFFFFFFFFFFFFFFFFFFFFFFFFF AND PUSH20 0xFFFFFFFFFFFFFFFFFFFFFFFFFFFFFFFFFFFFFFFF AND PUSH20 0xFFFFFFFFFFFFFFFFFFFFFFFFFFFFFFFFFFFFFFFF AND DUP2 MSTORE PUSH1 0x20 ADD PUSH1 0x4 DUP3 ADD PUSH1 0x0 SWAP1 SLOAD SWAP1 PUSH2 0x100 EXP SWAP1 DIV PUSH20 0xFFFFFFFFFFFFFFFFFFFFFFFFFFFFFFFFFFFFFFFF AND PUSH20 0xFFFFFFFFFFFFFFFFFFFFFFFFFFFFFFFFFFFFFFFF AND PUSH20 0xFFFFFFFFFFFFFFFFFFFFFFFFFFFFFFFFFFFFFFFF AND DUP2 MSTORE PUSH1 0x20 ADD PUSH1 0x5 DUP3 ADD SLOAD DUP2 MSTORE PUSH1 0x20 ADD PUSH1 0x6 DUP3 ADD PUSH1 0x0 SWAP1 SLOAD SWAP1 PUSH2 0x100 EXP SWAP1 DIV PUSH1 0xFF AND PUSH1 0x2 DUP2 GT ISZERO PUSH2 0x1225 JUMPI PUSH2 0x1224 PUSH2 0x1F15 JUMP JUMPDEST JUMPDEST PUSH1 0x2 DUP2 GT ISZERO PUSH2 0x1237 JUMPI PUSH2 0x1236 PUSH2 0x1F15 JUMP JUMPDEST JUMPDEST DUP2 MSTORE POP POP DUP9 PUSH2 0x1430 JUMP JUMPDEST ISZERO PUSH2 0x13EC JUMPI PUSH1 0x5 PUSH1 0x0 DUP3 DUP2 MSTORE PUSH1 0x20 ADD SWAP1 DUP2 MSTORE PUSH1 0x20 ADD PUSH1 0x0 KECCAK256 PUSH1 0x40 MLOAD DUP1 PUSH1 0xE0 ADD PUSH1 0x40 MSTORE SWAP1 DUP2 PUSH1 0x0 DUP3 ADD SLOAD DUP2 MSTORE PUSH1 0x20 ADD PUSH1 0x1 DUP3 ADD PUSH1 0x0 SWAP1 SLOAD SWAP1 PUSH2 0x100 EXP SWAP1 DIV PUSH20 0xFFFFFFFFFFFFFFFFFFFFFFFFFFFFFFFFFFFFFFFF AND PUSH20 0xFFFFFFFFFFFFFFFFFFFFFFFFFFFFFFFFFFFFFFFF AND PUSH20 0xFFFFFFFFFFFFFFFFFFFFFFFFFFFFFFFFFFFFFFFF AND DUP2 MSTORE PUSH1 0x20 ADD PUSH1 0x2 DUP3 ADD SLOAD DUP2 MSTORE PUSH1 0x20 ADD PUSH1 0x3 DUP3 ADD PUSH1 0x0 SWAP1 SLOAD SWAP1 PUSH2 0x100 EXP SWAP1 DIV PUSH20 0xFFFFFFFFFFFFFFFFFFFFFFFFFFFFFFFFFFFFFFFF AND PUSH20 0xFFFFFFFFFFFFFFFFFFFFFFFFFFFFFFFFFFFFFFFF AND PUSH20 0xFFFFFFFFFFFFFFFFFFFFFFFFFFFFFFFFFFFFFFFF AND DUP2 MSTORE PUSH1 0x20 ADD PUSH1 0x4 DUP3 ADD PUSH1 0x0 SWAP1 SLOAD SWAP1 PUSH2 0x100 EXP SWAP1 DIV PUSH20 0xFFFFFFFFFFFFFFFFFFFFFFFFFFFFFFFFFFFFFFFF AND PUSH20 0xFFFFFFFFFFFFFFFFFFFFFFFFFFFFFFFFFFFFFFFF AND PUSH20 0xFFFFFFFFFFFFFFFFFFFFFFFFFFFFFFFFFFFFFFFF AND DUP2 MSTORE PUSH1 0x20 ADD PUSH1 0x5 DUP3 ADD SLOAD DUP2 MSTORE PUSH1 0x20 ADD PUSH1 0x6 DUP3 ADD PUSH1 0x0 SWAP1 SLOAD SWAP1 PUSH2 0x100 EXP SWAP1 DIV PUSH1 0xFF AND PUSH1 0x2 DUP2 GT ISZERO PUSH2 0x13A9 JUMPI PUSH2 0x13A8 PUSH2 0x1F15 JUMP JUMPDEST JUMPDEST PUSH1 0x2 DUP2 GT ISZERO PUSH2 0x13BB JUMPI PUSH2 0x13BA PUSH2 0x1F15 JUMP JUMPDEST JUMPDEST DUP2 MSTORE POP POP DUP3 DUP5 DUP2 MLOAD DUP2 LT PUSH2 0x13D2 JUMPI PUSH2 0x13D1 PUSH2 0x1F44 JUMP JUMPDEST JUMPDEST PUSH1 0x20 MUL PUSH1 0x20 ADD ADD DUP2 SWAP1 MSTORE POP DUP3 DUP1 PUSH2 0x13E8 SWAP1 PUSH2 0x1E9D JUMP JUMPDEST SWAP4 POP POP JUMPDEST DUP1 DUP1 PUSH2 0x13F7 SWAP1 PUSH2 0x1E9D JUMP JUMPDEST SWAP2 POP POP PUSH2 0x10B8 JUMP JUMPDEST POP DUP1 SWAP5 POP POP POP POP POP SWAP2 SWAP1 POP JUMP JUMPDEST PUSH1 0x1 DUP2 PUSH1 0x0 ADD PUSH1 0x0 DUP3 DUP3 SLOAD ADD SWAP3 POP POP DUP2 SWAP1 SSTORE POP POP JUMP JUMPDEST PUSH1 0x0 DUP2 PUSH1 0x0 ADD SLOAD SWAP1 POP SWAP2 SWAP1 POP JUMP JUMPDEST PUSH1 0x0 PUSH1 0x2 DUP1 DUP2 GT ISZERO PUSH2 0x1445 JUMPI PUSH2 0x1444 PUSH2 0x1F15 JUMP JUMPDEST JUMPDEST DUP3 PUSH1 0x2 DUP2 GT ISZERO PUSH2 0x1458 JUMPI PUSH2 0x1457 PUSH2 0x1F15 JUMP JUMPDEST JUMPDEST EQ ISZERO PUSH2 0x14DA JUMPI CALLER PUSH20 0xFFFFFFFFFFFFFFFFFFFFFFFFFFFFFFFFFFFFFFFF AND DUP4 PUSH1 0x60 ADD MLOAD PUSH20 0xFFFFFFFFFFFFFFFFFFFFFFFFFFFFFFFFFFFFFFFF AND EQ DUP1 ISZERO PUSH2 0x14C5 JUMPI POP PUSH1 0x2 DUP1 DUP2 GT ISZERO PUSH2 0x14AB JUMPI PUSH2 0x14AA PUSH2 0x1F15 JUMP JUMPDEST JUMPDEST DUP4 PUSH1 0xC0 ADD MLOAD PUSH1 0x2 DUP2 GT ISZERO PUSH2 0x14C2 JUMPI PUSH2 0x14C1 PUSH2 0x1F15 JUMP JUMPDEST JUMPDEST EQ ISZERO JUMPDEST PUSH2 0x14D0 JUMPI PUSH1 0x0 PUSH2 0x14D3 JUMP JUMPDEST PUSH1 0x1 JUMPDEST SWAP1 POP PUSH2 0x16C5 JUMP JUMPDEST PUSH1 0x1 PUSH1 0x2 DUP2 GT ISZERO PUSH2 0x14EE JUMPI PUSH2 0x14ED PUSH2 0x1F15 JUMP JUMPDEST JUMPDEST DUP3 PUSH1 0x2 DUP2 GT ISZERO PUSH2 0x1501 JUMPI PUSH2 0x1500 PUSH2 0x1F15 JUMP JUMPDEST JUMPDEST EQ ISZERO PUSH2 0x154F JUMPI CALLER PUSH20 0xFFFFFFFFFFFFFFFFFFFFFFFFFFFFFFFFFFFFFFFF AND DUP4 PUSH1 0x80 ADD MLOAD PUSH20 0xFFFFFFFFFFFFFFFFFFFFFFFFFFFFFFFFFFFFFFFF AND EQ PUSH2 0x1545 JUMPI PUSH1 0x0 PUSH2 0x1548 JUMP JUMPDEST PUSH1 0x1 JUMPDEST SWAP1 POP PUSH2 0x16C5 JUMP JUMPDEST PUSH1 0x0 PUSH1 0x2 DUP2 GT ISZERO PUSH2 0x1563 JUMPI PUSH2 0x1562 PUSH2 0x1F15 JUMP JUMPDEST JUMPDEST DUP3 PUSH1 0x2 DUP2 GT ISZERO PUSH2 0x1576 JUMPI PUSH2 0x1575 PUSH2 0x1F15 JUMP JUMPDEST JUMPDEST EQ ISZERO PUSH2 0x16C0 JUMPI PUSH1 0x0 PUSH20 0xFFFFFFFFFFFFFFFFFFFFFFFFFFFFFFFFFFFFFFFF AND DUP4 PUSH1 0x80 ADD MLOAD PUSH20 0xFFFFFFFFFFFFFFFFFFFFFFFFFFFFFFFFFFFFFFFF AND EQ DUP1 ISZERO PUSH2 0x15E4 JUMPI POP PUSH1 0x0 PUSH1 0x2 DUP2 GT ISZERO PUSH2 0x15CB JUMPI PUSH2 0x15CA PUSH2 0x1F15 JUMP JUMPDEST JUMPDEST DUP4 PUSH1 0xC0 ADD MLOAD PUSH1 0x2 DUP2 GT ISZERO PUSH2 0x15E2 JUMPI PUSH2 0x15E1 PUSH2 0x1F15 JUMP JUMPDEST JUMPDEST EQ JUMPDEST DUP1 ISZERO PUSH2 0x16AB JUMPI POP ADDRESS PUSH20 0xFFFFFFFFFFFFFFFFFFFFFFFFFFFFFFFFFFFFFFFF AND DUP4 PUSH1 0x20 ADD MLOAD PUSH20 0xFFFFFFFFFFFFFFFFFFFFFFFFFFFFFFFFFFFFFFFF AND PUSH4 0x81812FC DUP6 PUSH1 0x40 ADD MLOAD PUSH1 0x40 MLOAD DUP3 PUSH4 0xFFFFFFFF AND PUSH1 0xE0 SHL DUP2 MSTORE PUSH1 0x4 ADD PUSH2 0x1643 SWAP2 SWAP1 PUSH2 0x1D7D JUMP JUMPDEST PUSH1 0x20 PUSH1 0x40 MLOAD DUP1 DUP4 SUB DUP2 DUP7 DUP1 EXTCODESIZE ISZERO DUP1 ISZERO PUSH2 0x165B JUMPI PUSH1 0x0 DUP1 REVERT JUMPDEST POP GAS STATICCALL ISZERO DUP1 ISZERO PUSH2 0x166F JUMPI RETURNDATASIZE PUSH1 0x0 DUP1 RETURNDATACOPY RETURNDATASIZE PUSH1 0x0 REVERT JUMPDEST POP POP POP POP PUSH1 0x40 MLOAD RETURNDATASIZE PUSH1 0x1F NOT PUSH1 0x1F DUP3 ADD AND DUP3 ADD DUP1 PUSH1 0x40 MSTORE POP DUP2 ADD SWAP1 PUSH2 0x1693 SWAP2 SWAP1 PUSH2 0x179B JUMP JUMPDEST PUSH20 0xFFFFFFFFFFFFFFFFFFFFFFFFFFFFFFFFFFFFFFFF AND EQ JUMPDEST PUSH2 0x16B6 JUMPI PUSH1 0x0 PUSH2 0x16B9 JUMP JUMPDEST PUSH1 0x1 JUMPDEST SWAP1 POP PUSH2 0x16C5 JUMP JUMPDEST PUSH1 0x0 SWAP1 POP JUMPDEST SWAP3 SWAP2 POP POP JUMP JUMPDEST PUSH1 0x40 MLOAD DUP1 PUSH1 0xE0 ADD PUSH1 0x40 MSTORE DUP1 PUSH1 0x0 DUP2 MSTORE PUSH1 0x20 ADD PUSH1 0x0 PUSH20 0xFFFFFFFFFFFFFFFFFFFFFFFFFFFFFFFFFFFFFFFF AND DUP2 MSTORE PUSH1 0x20 ADD PUSH1 0x0 DUP2 MSTORE PUSH1 0x20 ADD PUSH1 0x0 PUSH20 0xFFFFFFFFFFFFFFFFFFFFFFFFFFFFFFFFFFFFFFFF AND DUP2 MSTORE PUSH1 0x20 ADD PUSH1 0x0 PUSH20 0xFFFFFFFFFFFFFFFFFFFFFFFFFFFFFFFFFFFFFFFF AND DUP2 MSTORE PUSH1 0x20 ADD PUSH1 0x0 DUP2 MSTORE PUSH1 0x20 ADD PUSH1 0x0 PUSH1 0x2 DUP2 GT ISZERO PUSH2 0x1756 JUMPI PUSH2 0x1755 PUSH2 0x1F15 JUMP JUMPDEST JUMPDEST DUP2 MSTORE POP SWAP1 JUMP JUMPDEST PUSH1 0x0 DUP2 CALLDATALOAD SWAP1 POP PUSH2 0x176B DUP2 PUSH2 0x2103 JUMP JUMPDEST SWAP3 SWAP2 POP POP JUMP JUMPDEST PUSH1 0x0 DUP2 MLOAD SWAP1 POP PUSH2 0x1780 DUP2 PUSH2 0x2103 JUMP JUMPDEST SWAP3 SWAP2 POP POP JUMP JUMPDEST PUSH1 0x0 DUP2 CALLDATALOAD SWAP1 POP PUSH2 0x1795 DUP2 PUSH2 0x211A JUMP JUMPDEST SWAP3 SWAP2 POP POP JUMP JUMPDEST PUSH1 0x0 PUSH1 0x20 DUP3 DUP5 SUB SLT ISZERO PUSH2 0x17B1 JUMPI PUSH2 0x17B0 PUSH2 0x1FA2 JUMP JUMPDEST JUMPDEST PUSH1 0x0 PUSH2 0x17BF DUP5 DUP3 DUP6 ADD PUSH2 0x1771 JUMP JUMPDEST SWAP2 POP POP SWAP3 SWAP2 POP POP JUMP JUMPDEST PUSH1 0x0 DUP1 PUSH1 0x40 DUP4 DUP6 SUB SLT ISZERO PUSH2 0x17DF JUMPI PUSH2 0x17DE PUSH2 0x1FA2 JUMP JUMPDEST JUMPDEST PUSH1 0x0 PUSH2 0x17ED DUP6 DUP3 DUP7 ADD PUSH2 0x175C JUMP JUMPDEST SWAP3 POP POP PUSH1 0x20 PUSH2 0x17FE DUP6 DUP3 DUP7 ADD PUSH2 0x1786 JUMP JUMPDEST SWAP2 POP POP SWAP3 POP SWAP3 SWAP1 POP JUMP JUMPDEST PUSH1 0x0 DUP1 PUSH1 0x0 PUSH1 0x60 DUP5 DUP7 SUB SLT ISZERO PUSH2 0x1821 JUMPI PUSH2 0x1820 PUSH2 0x1FA2 JUMP JUMPDEST JUMPDEST PUSH1 0x0 PUSH2 0x182F DUP7 DUP3 DUP8 ADD PUSH2 0x175C JUMP JUMPDEST SWAP4 POP POP PUSH1 0x20 PUSH2 0x1840 DUP7 DUP3 DUP8 ADD PUSH2 0x1786 JUMP JUMPDEST SWAP3 POP POP PUSH1 0x40 PUSH2 0x1851 DUP7 DUP3 DUP8 ADD PUSH2 0x1786 JUMP JUMPDEST SWAP2 POP POP SWAP3 POP SWAP3 POP SWAP3 JUMP JUMPDEST PUSH1 0x0 PUSH1 0x20 DUP3 DUP5 SUB SLT ISZERO PUSH2 0x1871 JUMPI PUSH2 0x1870 PUSH2 0x1FA2 JUMP JUMPDEST JUMPDEST PUSH1 0x0 PUSH2 0x187F DUP5 DUP3 DUP6 ADD PUSH2 0x1786 JUMP JUMPDEST SWAP2 POP POP SWAP3 SWAP2 POP POP JUMP JUMPDEST PUSH1 0x0 PUSH2 0x1894 DUP4 DUP4 PUSH2 0x1A8E JUMP JUMPDEST PUSH1 0xE0 DUP4 ADD SWAP1 POP SWAP3 SWAP2 POP POP JUMP JUMPDEST PUSH2 0x18A9 DUP2 PUSH2 0x1E43 JUMP JUMPDEST DUP3 MSTORE POP POP JUMP JUMPDEST PUSH2 0x18B8 DUP2 PUSH2 0x1DF4 JUMP JUMPDEST DUP3 MSTORE POP POP JUMP JUMPDEST PUSH2 0x18C7 DUP2 PUSH2 0x1DF4 JUMP JUMPDEST DUP3 MSTORE POP POP JUMP JUMPDEST PUSH2 0x18D6 DUP2 PUSH2 0x1DE2 JUMP JUMPDEST DUP3 MSTORE POP POP JUMP JUMPDEST PUSH2 0x18E5 DUP2 PUSH2 0x1DE2 JUMP JUMPDEST DUP3 MSTORE POP POP JUMP JUMPDEST PUSH1 0x0 PUSH2 0x18F6 DUP3 PUSH2 0x1DA8 JUMP JUMPDEST PUSH2 0x1900 DUP2 DUP6 PUSH2 0x1DC0 JUMP JUMPDEST SWAP4 POP PUSH2 0x190B DUP4 PUSH2 0x1D98 JUMP JUMPDEST DUP1 PUSH1 0x0 JUMPDEST DUP4 DUP2 LT ISZERO PUSH2 0x193C JUMPI DUP2 MLOAD PUSH2 0x1923 DUP9 DUP3 PUSH2 0x1888 JUMP JUMPDEST SWAP8 POP PUSH2 0x192E DUP4 PUSH2 0x1DB3 JUMP JUMPDEST SWAP3 POP POP PUSH1 0x1 DUP2 ADD SWAP1 POP PUSH2 0x190F JUMP JUMPDEST POP DUP6 SWAP4 POP POP POP POP SWAP3 SWAP2 POP POP JUMP JUMPDEST PUSH2 0x1952 DUP2 PUSH2 0x1E55 JUMP JUMPDEST DUP3 MSTORE POP POP JUMP JUMPDEST PUSH2 0x1961 DUP2 PUSH2 0x1E55 JUMP JUMPDEST DUP3 MSTORE POP POP JUMP JUMPDEST PUSH2 0x1970 DUP2 PUSH2 0x1E67 JUMP JUMPDEST DUP3 MSTORE POP POP JUMP JUMPDEST PUSH1 0x0 PUSH2 0x1983 PUSH1 0x11 DUP4 PUSH2 0x1DD1 JUMP JUMPDEST SWAP2 POP PUSH2 0x198E DUP3 PUSH2 0x1FA7 JUMP JUMPDEST PUSH1 0x20 DUP3 ADD SWAP1 POP SWAP2 SWAP1 POP JUMP JUMPDEST PUSH1 0x0 PUSH2 0x19A6 PUSH1 0x1E DUP4 PUSH2 0x1DD1 JUMP JUMPDEST SWAP2 POP PUSH2 0x19B1 DUP3 PUSH2 0x1FD0 JUMP JUMPDEST PUSH1 0x20 DUP3 ADD SWAP1 POP SWAP2 SWAP1 POP JUMP JUMPDEST PUSH1 0x0 PUSH2 0x19C9 PUSH1 0x20 DUP4 PUSH2 0x1DD1 JUMP JUMPDEST SWAP2 POP PUSH2 0x19D4 DUP3 PUSH2 0x1FF9 JUMP JUMPDEST PUSH1 0x20 DUP3 ADD SWAP1 POP SWAP2 SWAP1 POP JUMP JUMPDEST PUSH1 0x0 PUSH2 0x19EC PUSH1 0x15 DUP4 PUSH2 0x1DD1 JUMP JUMPDEST SWAP2 POP PUSH2 0x19F7 DUP3 PUSH2 0x2022 JUMP JUMPDEST PUSH1 0x20 DUP3 ADD SWAP1 POP SWAP2 SWAP1 POP JUMP JUMPDEST PUSH1 0x0 PUSH2 0x1A0F PUSH1 0x16 DUP4 PUSH2 0x1DD1 JUMP JUMPDEST SWAP2 POP PUSH2 0x1A1A DUP3 PUSH2 0x204B JUMP JUMPDEST PUSH1 0x20 DUP3 ADD SWAP1 POP SWAP2 SWAP1 POP JUMP JUMPDEST PUSH1 0x0 PUSH2 0x1A32 PUSH1 0x1E DUP4 PUSH2 0x1DD1 JUMP JUMPDEST SWAP2 POP PUSH2 0x1A3D DUP3 PUSH2 0x2074 JUMP JUMPDEST PUSH1 0x20 DUP3 ADD SWAP1 POP SWAP2 SWAP1 POP JUMP JUMPDEST PUSH1 0x0 PUSH2 0x1A55 PUSH1 0x1F DUP4 PUSH2 0x1DD1 JUMP JUMPDEST SWAP2 POP PUSH2 0x1A60 DUP3 PUSH2 0x209D JUMP JUMPDEST PUSH1 0x20 DUP3 ADD SWAP1 POP SWAP2 SWAP1 POP JUMP JUMPDEST PUSH1 0x0 PUSH2 0x1A78 PUSH1 0x1C DUP4 PUSH2 0x1DD1 JUMP JUMPDEST SWAP2 POP PUSH2 0x1A83 DUP3 PUSH2 0x20C6 JUMP JUMPDEST PUSH1 0x20 DUP3 ADD SWAP1 POP SWAP2 SWAP1 POP JUMP JUMPDEST PUSH1 0xE0 DUP3 ADD PUSH1 0x0 DUP3 ADD MLOAD PUSH2 0x1AA4 PUSH1 0x0 DUP6 ADD DUP3 PUSH2 0x1B1C JUMP JUMPDEST POP PUSH1 0x20 DUP3 ADD MLOAD PUSH2 0x1AB7 PUSH1 0x20 DUP6 ADD DUP3 PUSH2 0x18CD JUMP JUMPDEST POP PUSH1 0x40 DUP3 ADD MLOAD PUSH2 0x1ACA PUSH1 0x40 DUP6 ADD DUP3 PUSH2 0x1B1C JUMP JUMPDEST POP PUSH1 0x60 DUP3 ADD MLOAD PUSH2 0x1ADD PUSH1 0x60 DUP6 ADD DUP3 PUSH2 0x18AF JUMP JUMPDEST POP PUSH1 0x80 DUP3 ADD MLOAD PUSH2 0x1AF0 PUSH1 0x80 DUP6 ADD DUP3 PUSH2 0x18AF JUMP JUMPDEST POP PUSH1 0xA0 DUP3 ADD MLOAD PUSH2 0x1B03 PUSH1 0xA0 DUP6 ADD DUP3 PUSH2 0x1B1C JUMP JUMPDEST POP PUSH1 0xC0 DUP3 ADD MLOAD PUSH2 0x1B16 PUSH1 0xC0 DUP6 ADD DUP3 PUSH2 0x1949 JUMP JUMPDEST POP POP POP POP JUMP JUMPDEST PUSH2 0x1B25 DUP2 PUSH2 0x1E39 JUMP JUMPDEST DUP3 MSTORE POP POP JUMP JUMPDEST PUSH2 0x1B34 DUP2 PUSH2 0x1E39 JUMP JUMPDEST DUP3 MSTORE POP POP JUMP JUMPDEST PUSH1 0x0 PUSH1 0x20 DUP3 ADD SWAP1 POP PUSH2 0x1B4F PUSH1 0x0 DUP4 ADD DUP5 PUSH2 0x18BE JUMP JUMPDEST SWAP3 SWAP2 POP POP JUMP JUMPDEST PUSH1 0x0 PUSH1 0x80 DUP3 ADD SWAP1 POP PUSH2 0x1B6A PUSH1 0x0 DUP4 ADD DUP8 PUSH2 0x18A0 JUMP JUMPDEST PUSH2 0x1B77 PUSH1 0x20 DUP4 ADD DUP7 PUSH2 0x18DC JUMP JUMPDEST PUSH2 0x1B84 PUSH1 0x40 DUP4 ADD DUP6 PUSH2 0x1967 JUMP JUMPDEST PUSH2 0x1B91 PUSH1 0x60 DUP4 ADD DUP5 PUSH2 0x1958 JUMP JUMPDEST SWAP6 SWAP5 POP POP POP POP POP JUMP JUMPDEST PUSH1 0x0 PUSH1 0x80 DUP3 ADD SWAP1 POP PUSH2 0x1BAF PUSH1 0x0 DUP4 ADD DUP8 PUSH2 0x18A0 JUMP JUMPDEST PUSH2 0x1BBC PUSH1 0x20 DUP4 ADD DUP7 PUSH2 0x18DC JUMP JUMPDEST PUSH2 0x1BC9 PUSH1 0x40 DUP4 ADD DUP6 PUSH2 0x1B2B JUMP JUMPDEST PUSH2 0x1BD6 PUSH1 0x60 DUP4 ADD DUP5 PUSH2 0x1958 JUMP JUMPDEST SWAP6 SWAP5 POP POP POP POP POP JUMP JUMPDEST PUSH1 0x0 PUSH1 0x60 DUP3 ADD SWAP1 POP PUSH2 0x1BF4 PUSH1 0x0 DUP4 ADD DUP7 PUSH2 0x18DC JUMP JUMPDEST PUSH2 0x1C01 PUSH1 0x20 DUP4 ADD DUP6 PUSH2 0x18DC JUMP JUMPDEST PUSH2 0x1C0E PUSH1 0x40 DUP4 ADD DUP5 PUSH2 0x1B2B JUMP JUMPDEST SWAP5 SWAP4 POP POP POP POP JUMP JUMPDEST PUSH1 0x0 PUSH1 0x80 DUP3 ADD SWAP1 POP PUSH2 0x1C2B PUSH1 0x0 DUP4 ADD DUP8 PUSH2 0x18DC JUMP JUMPDEST PUSH2 0x1C38 PUSH1 0x20 DUP4 ADD DUP7 PUSH2 0x18DC JUMP JUMPDEST PUSH2 0x1C45 PUSH1 0x40 DUP4 ADD DUP6 PUSH2 0x1B2B JUMP JUMPDEST PUSH2 0x1C52 PUSH1 0x60 DUP4 ADD DUP5 PUSH2 0x1958 JUMP JUMPDEST SWAP6 SWAP5 POP POP POP POP POP JUMP JUMPDEST PUSH1 0x0 PUSH1 0x20 DUP3 ADD SWAP1 POP DUP2 DUP2 SUB PUSH1 0x0 DUP4 ADD MSTORE PUSH2 0x1C75 DUP2 DUP5 PUSH2 0x18EB JUMP JUMPDEST SWAP1 POP SWAP3 SWAP2 POP POP JUMP JUMPDEST PUSH1 0x0 PUSH1 0x20 DUP3 ADD SWAP1 POP DUP2 DUP2 SUB PUSH1 0x0 DUP4 ADD MSTORE PUSH2 0x1C96 DUP2 PUSH2 0x1976 JUMP JUMPDEST SWAP1 POP SWAP2 SWAP1 POP JUMP JUMPDEST PUSH1 0x0 PUSH1 0x20 DUP3 ADD SWAP1 POP DUP2 DUP2 SUB PUSH1 0x0 DUP4 ADD MSTORE PUSH2 0x1CB6 DUP2 PUSH2 0x1999 JUMP JUMPDEST SWAP1 POP SWAP2 SWAP1 POP JUMP JUMPDEST PUSH1 0x0 PUSH1 0x20 DUP3 ADD SWAP1 POP DUP2 DUP2 SUB PUSH1 0x0 DUP4 ADD MSTORE PUSH2 0x1CD6 DUP2 PUSH2 0x19BC JUMP JUMPDEST SWAP1 POP SWAP2 SWAP1 POP JUMP JUMPDEST PUSH1 0x0 PUSH1 0x20 DUP3 ADD SWAP1 POP DUP2 DUP2 SUB PUSH1 0x0 DUP4 ADD MSTORE PUSH2 0x1CF6 DUP2 PUSH2 0x19DF JUMP JUMPDEST SWAP1 POP SWAP2 SWAP1 POP JUMP JUMPDEST PUSH1 0x0 PUSH1 0x20 DUP3 ADD SWAP1 POP DUP2 DUP2 SUB PUSH1 0x0 DUP4 ADD MSTORE PUSH2 0x1D16 DUP2 PUSH2 0x1A02 JUMP JUMPDEST SWAP1 POP SWAP2 SWAP1 POP JUMP JUMPDEST PUSH1 0x0 PUSH1 0x20 DUP3 ADD SWAP1 POP DUP2 DUP2 SUB PUSH1 0x0 DUP4 ADD MSTORE PUSH2 0x1D36 DUP2 PUSH2 0x1A25 JUMP JUMPDEST SWAP1 POP SWAP2 SWAP1 POP JUMP JUMPDEST PUSH1 0x0 PUSH1 0x20 DUP3 ADD SWAP1 POP DUP2 DUP2 SUB PUSH1 0x0 DUP4 ADD MSTORE PUSH2 0x1D56 DUP2 PUSH2 0x1A48 JUMP JUMPDEST SWAP1 POP SWAP2 SWAP1 POP JUMP JUMPDEST PUSH1 0x0 PUSH1 0x20 DUP3 ADD SWAP1 POP DUP2 DUP2 SUB PUSH1 0x0 DUP4 ADD MSTORE PUSH2 0x1D76 DUP2 PUSH2 0x1A6B JUMP JUMPDEST SWAP1 POP SWAP2 SWAP1 POP JUMP JUMPDEST PUSH1 0x0 PUSH1 0x20 DUP3 ADD SWAP1 POP PUSH2 0x1D92 PUSH1 0x0 DUP4 ADD DUP5 PUSH2 0x1B2B JUMP JUMPDEST SWAP3 SWAP2 POP POP JUMP JUMPDEST PUSH1 0x0 DUP2 SWAP1 POP PUSH1 0x20 DUP3 ADD SWAP1 POP SWAP2 SWAP1 POP JUMP JUMPDEST PUSH1 0x0 DUP2 MLOAD SWAP1 POP SWAP2 SWAP1 POP JUMP JUMPDEST PUSH1 0x0 PUSH1 0x20 DUP3 ADD SWAP1 POP SWAP2 SWAP1 POP JUMP JUMPDEST PUSH1 0x0 DUP3 DUP3 MSTORE PUSH1 0x20 DUP3 ADD SWAP1 POP SWAP3 SWAP2 POP POP JUMP JUMPDEST PUSH1 0x0 DUP3 DUP3 MSTORE PUSH1 0x20 DUP3 ADD SWAP1 POP SWAP3 SWAP2 POP POP JUMP JUMPDEST PUSH1 0x0 PUSH2 0x1DED DUP3 PUSH2 0x1E19 JUMP JUMPDEST SWAP1 POP SWAP2 SWAP1 POP JUMP JUMPDEST PUSH1 0x0 PUSH2 0x1DFF DUP3 PUSH2 0x1E19 JUMP JUMPDEST SWAP1 POP SWAP2 SWAP1 POP JUMP JUMPDEST PUSH1 0x0 DUP2 SWAP1 POP PUSH2 0x1E14 DUP3 PUSH2 0x20EF JUMP JUMPDEST SWAP2 SWAP1 POP JUMP JUMPDEST PUSH1 0x0 PUSH20 0xFFFFFFFFFFFFFFFFFFFFFFFFFFFFFFFFFFFFFFFF DUP3 AND SWAP1 POP SWAP2 SWAP1 POP JUMP JUMPDEST PUSH1 0x0 DUP2 SWAP1 POP SWAP2 SWAP1 POP JUMP JUMPDEST PUSH1 0x0 PUSH2 0x1E4E DUP3 PUSH2 0x1E79 JUMP JUMPDEST SWAP1 POP SWAP2 SWAP1 POP JUMP JUMPDEST PUSH1 0x0 PUSH2 0x1E60 DUP3 PUSH2 0x1E06 JUMP JUMPDEST SWAP1 POP SWAP2 SWAP1 POP JUMP JUMPDEST PUSH1 0x0 PUSH2 0x1E72 DUP3 PUSH2 0x1E39 JUMP JUMPDEST SWAP1 POP SWAP2 SWAP1 POP JUMP JUMPDEST PUSH1 0x0 PUSH2 0x1E84 DUP3 PUSH2 0x1E8B JUMP JUMPDEST SWAP1 POP SWAP2 SWAP1 POP JUMP JUMPDEST PUSH1 0x0 PUSH2 0x1E96 DUP3 PUSH2 0x1E19 JUMP JUMPDEST SWAP1 POP SWAP2 SWAP1 POP JUMP JUMPDEST PUSH1 0x0 PUSH2 0x1EA8 DUP3 PUSH2 0x1E39 JUMP JUMPDEST SWAP2 POP PUSH32 0xFFFFFFFFFFFFFFFFFFFFFFFFFFFFFFFFFFFFFFFFFFFFFFFFFFFFFFFFFFFFFFFF DUP3 EQ ISZERO PUSH2 0x1EDB JUMPI PUSH2 0x1EDA PUSH2 0x1EE6 JUMP JUMPDEST JUMPDEST PUSH1 0x1 DUP3 ADD SWAP1 POP SWAP2 SWAP1 POP JUMP JUMPDEST PUSH32 0x4E487B7100000000000000000000000000000000000000000000000000000000 PUSH1 0x0 MSTORE PUSH1 0x11 PUSH1 0x4 MSTORE PUSH1 0x24 PUSH1 0x0 REVERT JUMPDEST PUSH32 0x4E487B7100000000000000000000000000000000000000000000000000000000 PUSH1 0x0 MSTORE PUSH1 0x21 PUSH1 0x4 MSTORE PUSH1 0x24 PUSH1 0x0 REVERT JUMPDEST PUSH32 0x4E487B7100000000000000000000000000000000000000000000000000000000 PUSH1 0x0 MSTORE PUSH1 0x32 PUSH1 0x4 MSTORE PUSH1 0x24 PUSH1 0x0 REVERT JUMPDEST PUSH32 0x4E487B7100000000000000000000000000000000000000000000000000000000 PUSH1 0x0 MSTORE PUSH1 0x41 PUSH1 0x4 MSTORE PUSH1 0x24 PUSH1 0x0 REVERT JUMPDEST PUSH1 0x0 DUP1 REVERT JUMPDEST PUSH32 0x6D75737420626520746865206F776E6572000000000000000000000000000000 PUSH1 0x0 DUP3 ADD MSTORE POP JUMP JUMPDEST PUSH32 0x506C65617365207375626D6974207468652061736B696E672070726963650000 PUSH1 0x0 DUP3 ADD MSTORE POP JUMP JUMPDEST PUSH32 0x466565206D75737420626520657175616C20746F206C697374696E6720666565 PUSH1 0x0 DUP3 ADD MSTORE POP JUMP JUMPDEST PUSH32 0x6964206D757374203C3D206974656D20636F756E740000000000000000000000 PUSH1 0x0 DUP3 ADD MSTORE POP JUMP JUMPDEST PUSH32 0x6974656D206D757374206265206F6E206D61726B657400000000000000000000 PUSH1 0x0 DUP3 ADD MSTORE POP JUMP JUMPDEST PUSH32 0x4E4654206D75737420626520617070726F76656420746F206D61726B65740000 PUSH1 0x0 DUP3 ADD MSTORE POP JUMP JUMPDEST PUSH32 0x5265656E7472616E637947756172643A207265656E7472616E742063616C6C00 PUSH1 0x0 DUP3 ADD MSTORE POP JUMP JUMPDEST PUSH32 0x5072696365206D757374206265206174206C6561737420312077656900000000 PUSH1 0x0 DUP3 ADD MSTORE POP JUMP JUMPDEST PUSH1 0x3 DUP2 LT PUSH2 0x2100 JUMPI PUSH2 0x20FF PUSH2 0x1F15 JUMP JUMPDEST JUMPDEST POP JUMP JUMPDEST PUSH2 0x210C DUP2 PUSH2 0x1DE2 JUMP JUMPDEST DUP2 EQ PUSH2 0x2117 JUMPI PUSH1 0x0 DUP1 REVERT JUMPDEST POP JUMP JUMPDEST PUSH2 0x2123 DUP2 PUSH2 0x1E39 JUMP JUMPDEST DUP2 EQ PUSH2 0x212E JUMPI PUSH1 0x0 DUP1 REVERT JUMPDEST POP JUMP INVALID LOG2 PUSH5 0x6970667358 0x22 SLT KECCAK256 SIGNEXTEND 0xD3 TIMESTAMP 0xAD PUSH13 0xCC9BB3B1CF9DFBA8D0778961BF ADDRESS SWAP1 DUP6 PUSH20 0xDC98201CA00EAC20ABF364736F6C634300080700 CALLER "
		},
		"gasEstimates": {
			"creation": {
				"codeDepositCost": "1710200",
				"executionCost": "70285",
				"totalCost": "1780485"
			},
			"external": {
				"createMarketItem(address,uint256,uint256)": "infinite",
				"createMarketSale(address,uint256)": "infinite",
				"deleteMarketItem(uint256)": "infinite",
				"fetchActiveItems()": "infinite",
				"fetchMyCreatedItems()": "infinite",
				"fetchMyPurchasedItems()": "infinite",
				"getItemFee(uint256)": "infinite",
				"getListingFee()": "2481",
				"listingFee()": "2518",
				"marketowner()": "2581"
			},
			"internal": {
				"fetchHepler(enum DigardMarketplace.FetchOperator)": "infinite",
				"isCondition(struct DigardMarketplace.MarketItem memory,enum DigardMarketplace.FetchOperator)": "infinite"
			}
		},
		"methodIdentifiers": {
			"createMarketItem(address,uint256,uint256)": "58eb2df5",
			"createMarketSale(address,uint256)": "c23b139e",
			"deleteMarketItem(uint256)": "a9c07145",
			"fetchActiveItems()": "332b386b",
			"fetchMyCreatedItems()": "ef8da9da",
			"fetchMyPurchasedItems()": "ab76ce16",
			"getItemFee(uint256)": "56246c40",
			"getListingFee()": "b8fe6abe",
			"listingFee()": "6a1b7ecc",
			"marketowner()": "5e385b92"
		}
	},
	"abi": [
		{
			"inputs": [],
			"stateMutability": "nonpayable",
			"type": "constructor"
		},
		{
			"anonymous": false,
			"inputs": [
				{
					"indexed": true,
					"internalType": "uint256",
					"name": "id",
					"type": "uint256"
				},
				{
					"indexed": true,
					"internalType": "address",
					"name": "nftContract",
					"type": "address"
				},
				{
					"indexed": true,
					"internalType": "uint256",
					"name": "tokenId",
					"type": "uint256"
				},
				{
					"indexed": false,
					"internalType": "address",
					"name": "seller",
					"type": "address"
				},
				{
					"indexed": false,
					"internalType": "address",
					"name": "buyer",
					"type": "address"
				},
				{
					"indexed": false,
					"internalType": "uint256",
					"name": "price",
					"type": "uint256"
				},
				{
					"indexed": false,
					"internalType": "enum DigardMarketplace.State",
					"name": "state",
					"type": "uint8"
				}
			],
			"name": "MarketItemCreated",
			"type": "event"
		},
		{
			"anonymous": false,
			"inputs": [
				{
					"indexed": true,
					"internalType": "uint256",
					"name": "id",
					"type": "uint256"
				},
				{
					"indexed": true,
					"internalType": "address",
					"name": "nftContract",
					"type": "address"
				},
				{
					"indexed": true,
					"internalType": "uint256",
					"name": "tokenId",
					"type": "uint256"
				},
				{
					"indexed": false,
					"internalType": "address",
					"name": "seller",
					"type": "address"
				},
				{
					"indexed": false,
					"internalType": "address",
					"name": "buyer",
					"type": "address"
				},
				{
					"indexed": false,
					"internalType": "uint256",
					"name": "price",
					"type": "uint256"
				},
				{
					"indexed": false,
					"internalType": "enum DigardMarketplace.State",
					"name": "state",
					"type": "uint8"
				}
			],
			"name": "MarketItemSold",
			"type": "event"
		},
		{
			"inputs": [
				{
					"internalType": "address",
					"name": "nftContract",
					"type": "address"
				},
				{
					"internalType": "uint256",
					"name": "tokenId",
					"type": "uint256"
				},
				{
					"internalType": "uint256",
					"name": "price",
					"type": "uint256"
				}
			],
			"name": "createMarketItem",
			"outputs": [],
			"stateMutability": "payable",
			"type": "function"
		},
		{
			"inputs": [
				{
					"internalType": "address",
					"name": "nftContract",
					"type": "address"
				},
				{
					"internalType": "uint256",
					"name": "id",
					"type": "uint256"
				}
			],
			"name": "createMarketSale",
			"outputs": [],
			"stateMutability": "payable",
			"type": "function"
		},
		{
			"inputs": [
				{
					"internalType": "uint256",
					"name": "itemId",
					"type": "uint256"
				}
			],
			"name": "deleteMarketItem",
			"outputs": [],
			"stateMutability": "nonpayable",
			"type": "function"
		},
		{
			"inputs": [],
			"name": "fetchActiveItems",
			"outputs": [
				{
					"components": [
						{
							"internalType": "uint256",
							"name": "id",
							"type": "uint256"
						},
						{
							"internalType": "address",
							"name": "nftContract",
							"type": "address"
						},
						{
							"internalType": "uint256",
							"name": "tokenId",
							"type": "uint256"
						},
						{
							"internalType": "address payable",
							"name": "seller",
							"type": "address"
						},
						{
							"internalType": "address payable",
							"name": "buyer",
							"type": "address"
						},
						{
							"internalType": "uint256",
							"name": "price",
							"type": "uint256"
						},
						{
							"internalType": "enum DigardMarketplace.State",
							"name": "state",
							"type": "uint8"
						}
					],
					"internalType": "struct DigardMarketplace.MarketItem[]",
					"name": "",
					"type": "tuple[]"
				}
			],
			"stateMutability": "view",
			"type": "function"
		},
		{
			"inputs": [],
			"name": "fetchMyCreatedItems",
			"outputs": [
				{
					"components": [
						{
							"internalType": "uint256",
							"name": "id",
							"type": "uint256"
						},
						{
							"internalType": "address",
							"name": "nftContract",
							"type": "address"
						},
						{
							"internalType": "uint256",
							"name": "tokenId",
							"type": "uint256"
						},
						{
							"internalType": "address payable",
							"name": "seller",
							"type": "address"
						},
						{
							"internalType": "address payable",
							"name": "buyer",
							"type": "address"
						},
						{
							"internalType": "uint256",
							"name": "price",
							"type": "uint256"
						},
						{
							"internalType": "enum DigardMarketplace.State",
							"name": "state",
							"type": "uint8"
						}
					],
					"internalType": "struct DigardMarketplace.MarketItem[]",
					"name": "",
					"type": "tuple[]"
				}
			],
			"stateMutability": "view",
			"type": "function"
		},
		{
			"inputs": [],
			"name": "fetchMyPurchasedItems",
			"outputs": [
				{
					"components": [
						{
							"internalType": "uint256",
							"name": "id",
							"type": "uint256"
						},
						{
							"internalType": "address",
							"name": "nftContract",
							"type": "address"
						},
						{
							"internalType": "uint256",
							"name": "tokenId",
							"type": "uint256"
						},
						{
							"internalType": "address payable",
							"name": "seller",
							"type": "address"
						},
						{
							"internalType": "address payable",
							"name": "buyer",
							"type": "address"
						},
						{
							"internalType": "uint256",
							"name": "price",
							"type": "uint256"
						},
						{
							"internalType": "enum DigardMarketplace.State",
							"name": "state",
							"type": "uint8"
						}
					],
					"internalType": "struct DigardMarketplace.MarketItem[]",
					"name": "",
					"type": "tuple[]"
				}
			],
			"stateMutability": "view",
			"type": "function"
		},
		{
			"inputs": [
				{
					"internalType": "uint256",
					"name": "id",
					"type": "uint256"
				}
			],
			"name": "getItemFee",
			"outputs": [
				{
					"internalType": "uint256",
					"name": "",
					"type": "uint256"
				}
			],
			"stateMutability": "view",
			"type": "function"
		},
		{
			"inputs": [],
			"name": "getListingFee",
			"outputs": [
				{
					"internalType": "uint256",
					"name": "",
					"type": "uint256"
				}
			],
			"stateMutability": "view",
			"type": "function"
		},
		{
			"inputs": [],
			"name": "listingFee",
			"outputs": [
				{
					"internalType": "uint256",
					"name": "",
					"type": "uint256"
				}
			],
			"stateMutability": "view",
			"type": "function"
		},
		{
			"inputs": [],
			"name": "marketowner",
			"outputs": [
				{
					"internalType": "address payable",
					"name": "",
					"type": "address"
				}
			],
			"stateMutability": "view",
			"type": "function"
		}
	]
}